{
  "abi": [
    {
      "inputs": [],
      "stateMutability": "nonpayable",
      "type": "constructor"
    },
    {
      "inputs": [
        {
          "internalType": "address",
          "name": "profileOwner",
          "type": "address"
        }
      ],
      "name": "isApprovedToReceive",
      "outputs": [
        {
          "internalType": "bool",
          "name": "",
          "type": "bool"
        }
      ],
      "stateMutability": "view",
      "type": "function"
    },
    {
      "inputs": [
        {
          "internalType": "address",
          "name": "sender",
          "type": "address"
        }
      ],
      "name": "isApprovedToSend",
      "outputs": [
        {
          "internalType": "bool",
          "name": "",
          "type": "bool"
        }
      ],
      "stateMutability": "view",
      "type": "function"
    }
  ],
  "bytecode": {
    "object": "0x608060405234801561001057600080fd5b5060c08061001f6000396000f3fe6080604052348015600f57600080fd5b506004361060325760003560e01c80634bfc45391460375780636a6cfa2c146037575b600080fd5b60486042366004605c565b50600190565b604051901515815260200160405180910390f35b600060208284031215606d57600080fd5b81356001600160a01b0381168114608357600080fd5b939250505056fea2646970667358221220ea62780125f94db2a7c815731b8e3b784c0e322ebadf42525f296ec7cadd65cb64736f6c63430008130033",
    "linkReferences": {}
  },
  "methodIdentifiers": {
    "isApprovedToReceive(address)": "4bfc4539",
    "isApprovedToSend(address)": "6a6cfa2c"
  },
  "id": 0
}