{
  "abi": [
    {
      "inputs": [
        {
          "internalType": "bool",
          "name": "_doAuth",
          "type": "bool"
        }
      ],
      "stateMutability": "nonpayable",
      "type": "constructor"
    },
    {
      "inputs": [
        {
          "internalType": "address",
          "name": "profile",
          "type": "address"
        }
      ],
      "name": "canAttest",
      "outputs": [
        {
          "internalType": "bool",
          "name": "",
          "type": "bool"
        }
      ],
      "stateMutability": "view",
      "type": "function"
    },
    {
      "inputs": [
        {
          "internalType": "bytes",
          "name": "data",
          "type": "bytes"
        }
      ],
      "name": "decodeAttest",
      "outputs": [
        {
          "internalType": "string",
          "name": "",
          "type": "string"
        }
      ],
      "stateMutability": "view",
      "type": "function"
    },
    {
      "inputs": [],
      "name": "params",
      "outputs": [
        {
          "internalType": "bool",
          "name": "doAuth",
          "type": "bool"
        },
        {
          "internalType": "address",
          "name": "owner",
          "type": "address"
        }
      ],
      "stateMutability": "view",
      "type": "function"
    }
  ],
  "bytecode": {
    "object": "0x608060405234801561001057600080fd5b5060405161038438038061038483398101604081905261002f9161005c565b600080546001600160a81b031916911515610100600160a81b031916919091176101003302179055610085565b60006020828403121561006e57600080fd5b8151801515811461007e57600080fd5b9392505050565b6102f0806100946000396000f3fe608060405234801561001057600080fd5b50600436106100415760003560e01c806357692ad2146100465780635bbefc5b1461006e578063cff0ab961461008e575b600080fd5b61005961005436600461010a565b6100ca565b60405190151581526020015b60405180910390f35b61008161007c366004610133565b6100f5565b60405161006591906101a5565b6000546100ab9060ff81169061010090046001600160a01b031682565b6040805192151583526001600160a01b03909116602083015201610065565b600080546001600160a01b0383811661010090920416146100ea57600080fd5b505060005460ff1690565b606061010382840184610209565b9392505050565b60006020828403121561011c57600080fd5b81356001600160a01b038116811461010357600080fd5b6000806020838503121561014657600080fd5b823567ffffffffffffffff8082111561015e57600080fd5b818501915085601f83011261017257600080fd5b81358181111561018157600080fd5b86602082850101111561019357600080fd5b60209290920196919550909350505050565b600060208083528351808285015260005b818110156101d2578581018301518582016040015282016101b6565b506000604082860101526040601f19601f8301168501019250505092915050565b634e487b7160e01b600052604160045260246000fd5b60006020828403121561021b57600080fd5b813567ffffffffffffffff8082111561023357600080fd5b818401915084601f83011261024757600080fd5b813581811115610259576102596101f3565b604051601f8201601f19908116603f01168101908382118183101715610281576102816101f3565b8160405282815287602084870101111561029a57600080fd5b82602086016020830137600092810160200192909252509594505050505056fea2646970667358221220cb0c86525f2af94a4f401fba60d7644384d6b40658231efe5be24120803e7c5c64736f6c63430008130033",
    "linkReferences": {}
  },
  "methodIdentifiers": {
    "canAttest(address)": "57692ad2",
    "decodeAttest(bytes)": "5bbefc5b",
    "params()": "cff0ab96"
  },
  "id": 24
}