{
  "abi": [
    {
      "inputs": [],
      "stateMutability": "nonpayable",
      "type": "constructor"
    },
    {
      "inputs": [
        {
          "internalType": "address",
          "name": "profile",
          "type": "address"
        }
      ],
      "name": "getLatestValidatedHash",
      "outputs": [
        {
          "internalType": "bytes32",
          "name": "",
          "type": "bytes32"
        }
      ],
      "stateMutability": "view",
      "type": "function"
    },
    {
      "inputs": [
        {
          "internalType": "address",
          "name": "sender",
          "type": "address"
        },
        {
          "internalType": "address",
          "name": "profile",
          "type": "address"
        },
        {
          "internalType": "string",
          "name": "message",
          "type": "string"
        }
      ],
      "name": "validateTransaction",
      "outputs": [
        {
          "internalType": "bool",
          "name": "",
          "type": "bool"
        }
      ],
      "stateMutability": "nonpayable",
      "type": "function"
    }
  ],
  "bytecode": {
    "object": "0x608060405234801561001057600080fd5b50610214806100206000396000f3fe608060405234801561001057600080fd5b50600436106100365760003560e01c806354d19b011461003b578063847d535d14610063575b600080fd5b61004e61004936600461011e565b61009a565b60405190151581526020015b60405180910390f35b61008c6100713660046101ac565b6001600160a01b031660009081526020819052604090205490565b60405190815260200161005a565b6001600160a01b03831660009081526020818152604080832054905190916100c69186918691016101ce565b60408051601f1981840301815291815281516020928301206001600160a01b038816600090815292839052912091189055506001949350505050565b80356001600160a01b038116811461011957600080fd5b919050565b6000806000806060858703121561013457600080fd5b61013d85610102565b935061014b60208601610102565b9250604085013567ffffffffffffffff8082111561016857600080fd5b818701915087601f83011261017c57600080fd5b81358181111561018b57600080fd5b88602082850101111561019d57600080fd5b95989497505060200194505050565b6000602082840312156101be57600080fd5b6101c782610102565b9392505050565b818382376000910190815291905056fea264697066735822122050fd836657bfe545a636fc89b34fb200f862c5c3036c297cd596d5b698899db264736f6c63430008130033",
    "linkReferences": {}
  },
  "methodIdentifiers": {
    "getLatestValidatedHash(address)": "847d535d",
    "validateTransaction(address,address,string)": "54d19b01"
  },
  "id": 24
}