{
  "abi": [
    {
      "inputs": [
        {
          "internalType": "address",
          "name": "profile",
          "type": "address"
        }
      ],
      "name": "InvalidCaller",
      "type": "error"
    },
    {
      "inputs": [
        {
          "internalType": "address",
          "name": "sender",
          "type": "address"
        },
        {
          "internalType": "address",
          "name": "profile",
          "type": "address"
        },
        {
          "internalType": "string",
          "name": "message",
          "type": "string"
        }
      ],
      "name": "isPostValid",
      "outputs": [
        {
          "internalType": "bool",
          "name": "",
          "type": "bool"
        }
      ],
      "stateMutability": "view",
      "type": "function"
    },
    {
      "inputs": [
        {
          "internalType": "address",
          "name": "profile",
          "type": "address"
        }
      ],
      "name": "latestValidatedHash",
      "outputs": [
        {
          "internalType": "bytes32",
          "name": "",
          "type": "bytes32"
        }
      ],
      "stateMutability": "view",
      "type": "function"
    },
    {
      "inputs": [
        {
          "internalType": "address",
          "name": "sender",
          "type": "address"
        },
        {
          "internalType": "address",
          "name": "profile",
          "type": "address"
        },
        {
          "internalType": "string",
          "name": "message",
          "type": "string"
        }
      ],
      "name": "makeValidPost",
      "outputs": [],
      "stateMutability": "nonpayable",
      "type": "function"
    }
  ],
  "bytecode": {
    "object": "0x608060405234801561001057600080fd5b5061026c806100206000396000f3fe608060405234801561001057600080fd5b50600436106100415760003560e01c8063541477da146100465780636805053414610082578063b9b93dd9146100aa575b600080fd5b61006f610054366004610176565b6001600160a01b031660009081526020819052604090205490565b6040519081526020015b60405180910390f35b61009a610090366004610198565b6001949350505050565b6040519015158152602001610079565b6100bd6100b8366004610198565b6100bf565b005b6001600160a01b03831633146100f75760405163065ece9760e51b81526001600160a01b038416600482015260240160405180910390fd5b6001600160a01b03831660009081526020818152604091829020549151610122918591859101610226565b60408051601f1981840301815291815281516020928301206001600160a01b0390961660009081529182905290209318909255505050565b80356001600160a01b038116811461017157600080fd5b919050565b60006020828403121561018857600080fd5b6101918261015a565b9392505050565b600080600080606085870312156101ae57600080fd5b6101b78561015a565b93506101c56020860161015a565b9250604085013567ffffffffffffffff808211156101e257600080fd5b818701915087601f8301126101f657600080fd5b81358181111561020557600080fd5b88602082850101111561021757600080fd5b95989497505060200194505050565b818382376000910190815291905056fea26469706673582212209002afbaa0515ce68e715f563c9c0c2fa94c1b9ba302d2f3c248bdda3d77316064736f6c63430008130033",
    "linkReferences": {}
  },
  "methodIdentifiers": {
    "isPostValid(address,address,string)": "68050534",
    "latestValidatedHash(address)": "541477da",
    "makeValidPost(address,address,string)": "b9b93dd9"
  },
  "id": 28
}