{
  "abi": [
    {
      "inputs": [
        {
          "internalType": "string",
          "name": "_ownerName",
          "type": "string"
        }
      ],
      "stateMutability": "nonpayable",
      "type": "constructor"
    },
    {
      "inputs": [],
      "name": "AuthorizerDenied",
      "type": "error"
    },
    {
      "anonymous": false,
      "inputs": [
        {
          "indexed": false,
          "internalType": "address",
          "name": "sender",
          "type": "address"
        },
        {
          "indexed": false,
          "internalType": "address",
          "name": "authorizer",
          "type": "address"
        },
        {
          "indexed": false,
          "internalType": "uint256",
          "name": "index",
          "type": "uint256"
        }
      ],
      "name": "Attest",
      "type": "event"
    },
    {
      "anonymous": false,
      "inputs": [
        {
          "indexed": false,
          "internalType": "address",
          "name": "authorizer",
          "type": "address"
        },
        {
          "indexed": false,
          "internalType": "bool",
          "name": "status",
          "type": "bool"
        }
      ],
      "name": "AuthorizeChange",
      "type": "event"
    },
    {
      "anonymous": false,
      "inputs": [
        {
          "indexed": false,
          "internalType": "address",
          "name": "authorizer",
          "type": "address"
        },
        {
          "indexed": false,
          "internalType": "uint256",
          "name": "index",
          "type": "uint256"
        }
      ],
      "name": "Contest",
      "type": "event"
    },
    {
      "anonymous": false,
      "inputs": [
        {
          "indexed": true,
          "internalType": "address",
          "name": "previousOwner",
          "type": "address"
        },
        {
          "indexed": true,
          "internalType": "address",
          "name": "newOwner",
          "type": "address"
        }
      ],
      "name": "OwnershipTransferred",
      "type": "event"
    },
    {
      "inputs": [
        {
          "internalType": "address",
          "name": "newAuthorizer",
          "type": "address"
        }
      ],
      "name": "addAuthorizer",
      "outputs": [],
      "stateMutability": "nonpayable",
      "type": "function"
    },
    {
      "inputs": [
        {
          "internalType": "address",
          "name": "_authorizer",
          "type": "address"
        },
        {
          "internalType": "uint256",
          "name": "index",
          "type": "uint256"
        },
        {
          "internalType": "string",
          "name": "message",
          "type": "string"
        }
      ],
      "name": "addComment",
      "outputs": [],
      "stateMutability": "nonpayable",
      "type": "function"
    },
    {
      "inputs": [
        {
          "internalType": "address",
          "name": "_authorizer",
          "type": "address"
        },
        {
          "internalType": "string",
          "name": "message",
          "type": "string"
        }
      ],
      "name": "addPost",
      "outputs": [],
      "stateMutability": "nonpayable",
      "type": "function"
    },
    {
      "inputs": [
        {
          "internalType": "address",
          "name": "",
          "type": "address"
        },
        {
          "internalType": "uint256",
          "name": "",
          "type": "uint256"
        }
      ],
      "name": "attestations",
      "outputs": [
        {
          "internalType": "address",
          "name": "sender",
          "type": "address"
        },
        {
          "internalType": "string",
          "name": "message",
          "type": "string"
        }
      ],
      "stateMutability": "view",
      "type": "function"
    },
    {
      "inputs": [
        {
          "internalType": "address",
          "name": "authorizer",
          "type": "address"
        },
        {
          "internalType": "uint256",
          "name": "index",
          "type": "uint256"
        }
      ],
      "name": "commentByAuthorizerAndIndex",
      "outputs": [
        {
          "internalType": "string",
          "name": "",
          "type": "string"
        }
      ],
      "stateMutability": "view",
      "type": "function"
    },
    {
      "inputs": [
        {
          "internalType": "address",
          "name": "",
          "type": "address"
        },
        {
          "internalType": "uint256",
          "name": "",
          "type": "uint256"
        }
      ],
      "name": "contestations",
      "outputs": [
        {
          "internalType": "string",
          "name": "",
          "type": "string"
        }
      ],
      "stateMutability": "view",
      "type": "function"
    },
    {
      "inputs": [
        {
          "internalType": "address",
          "name": "authorizer",
          "type": "address"
        },
        {
          "internalType": "uint256",
          "name": "index",
          "type": "uint256"
        }
      ],
      "name": "deletePost",
      "outputs": [],
      "stateMutability": "nonpayable",
      "type": "function"
    },
    {
      "inputs": [
        {
          "internalType": "address",
          "name": "authorizer",
          "type": "address"
        },
        {
          "internalType": "uint256",
          "name": "index",
          "type": "uint256"
        },
        {
          "internalType": "bytes32",
          "name": "hash",
          "type": "bytes32"
        }
      ],
      "name": "deletePostWithHash",
      "outputs": [],
      "stateMutability": "nonpayable",
      "type": "function"
    },
    {
      "inputs": [],
      "name": "getAuthorizerList",
      "outputs": [
        {
          "internalType": "address[]",
          "name": "",
          "type": "address[]"
        }
      ],
      "stateMutability": "view",
      "type": "function"
    },
    {
      "inputs": [],
      "name": "getMetadataUri",
      "outputs": [
        {
          "internalType": "string",
          "name": "",
          "type": "string"
        }
      ],
      "stateMutability": "view",
      "type": "function"
    },
    {
      "inputs": [
        {
          "internalType": "address",
          "name": "_authorizer",
          "type": "address"
        }
      ],
      "name": "isAuthorizer",
      "outputs": [
        {
          "internalType": "bool",
          "name": "",
          "type": "bool"
        }
      ],
      "stateMutability": "view",
      "type": "function"
    },
    {
      "inputs": [],
      "name": "owner",
      "outputs": [
        {
          "internalType": "address",
          "name": "",
          "type": "address"
        }
      ],
      "stateMutability": "view",
      "type": "function"
    },
    {
      "inputs": [
        {
          "internalType": "address",
          "name": "authorizer",
          "type": "address"
        },
        {
          "internalType": "uint256",
          "name": "index",
          "type": "uint256"
        }
      ],
      "name": "postByAuthorizerAndIndex",
      "outputs": [
        {
          "components": [
            {
              "internalType": "address",
              "name": "sender",
              "type": "address"
            },
            {
              "internalType": "string",
              "name": "message",
              "type": "string"
            }
          ],
          "internalType": "struct IProfile.Attestation",
          "name": "",
          "type": "tuple"
        }
      ],
      "stateMutability": "view",
      "type": "function"
    },
    {
      "inputs": [
        {
          "internalType": "address",
          "name": "authorizer",
          "type": "address"
        }
      ],
      "name": "postLengthByAuthorizer",
      "outputs": [
        {
          "internalType": "uint256",
          "name": "",
          "type": "uint256"
        }
      ],
      "stateMutability": "view",
      "type": "function"
    },
    {
      "inputs": [
        {
          "internalType": "address",
          "name": "authorizer",
          "type": "address"
        }
      ],
      "name": "postsByAuthorizer",
      "outputs": [
        {
          "components": [
            {
              "internalType": "address",
              "name": "sender",
              "type": "address"
            },
            {
              "internalType": "string",
              "name": "message",
              "type": "string"
            }
          ],
          "internalType": "struct IProfile.Attestation[]",
          "name": "",
          "type": "tuple[]"
        }
      ],
      "stateMutability": "view",
      "type": "function"
    },
    {
      "inputs": [],
      "name": "profileOwner",
      "outputs": [
        {
          "internalType": "address",
          "name": "",
          "type": "address"
        }
      ],
      "stateMutability": "view",
      "type": "function"
    },
    {
      "inputs": [
        {
          "internalType": "address",
          "name": "badAuthorizer",
          "type": "address"
        }
      ],
      "name": "removeAuthorizer",
      "outputs": [],
      "stateMutability": "nonpayable",
      "type": "function"
    },
    {
      "inputs": [],
      "name": "renounceOwnership",
      "outputs": [],
      "stateMutability": "nonpayable",
      "type": "function"
    },
    {
      "inputs": [
        {
          "internalType": "string",
          "name": "_newOwnerName",
          "type": "string"
        }
      ],
      "name": "setOwnerName",
      "outputs": [],
      "stateMutability": "nonpayable",
      "type": "function"
    },
    {
      "inputs": [
        {
          "internalType": "address",
          "name": "newOwner",
          "type": "address"
        }
      ],
      "name": "transferOwnership",
      "outputs": [],
      "stateMutability": "nonpayable",
      "type": "function"
    }
  ],
  "bytecode": {
    "object": "0x60806040523480156200001157600080fd5b5060405162001be838038062001be88339810160408190526200003491620000bf565b6200003f3362000059565b60018055600262000051828262000223565b5050620002ef565b600080546001600160a01b038381166001600160a01b0319831681178455604051919092169283917f8be0079c531659141344cd1fd0a4f28419497f9722a3daafe3b4186f6b6457e09190a35050565b634e487b7160e01b600052604160045260246000fd5b60006020808385031215620000d357600080fd5b82516001600160401b0380821115620000eb57600080fd5b818501915085601f8301126200010057600080fd5b815181811115620001155762000115620000a9565b604051601f8201601f19908116603f01168101908382118183101715620001405762000140620000a9565b8160405282815288868487010111156200015957600080fd5b600093505b828410156200017d57848401860151818501870152928501926200015e565b600086848301015280965050505050505092915050565b600181811c90821680620001a957607f821691505b602082108103620001ca57634e487b7160e01b600052602260045260246000fd5b50919050565b601f8211156200021e57600081815260208120601f850160051c81016020861015620001f95750805b601f850160051c820191505b818110156200021a5782815560010162000205565b5050505b505050565b81516001600160401b038111156200023f576200023f620000a9565b620002578162000250845462000194565b84620001d0565b602080601f8311600181146200028f5760008415620002765750858301515b600019600386901b1c1916600185901b1785556200021a565b600085815260208120601f198616915b82811015620002c0578886015182559484019460019091019084016200029f565b5085821015620002df5787850151600019600388901b60f8161c191681555b5050505050600190811b01905550565b6118e980620002ff6000396000f3fe608060405234801561001057600080fd5b506004361061012c5760003560e01c8063a129c3c1116100ad578063d6573eba11610071578063d6573eba146102ab578063ef107afc146102be578063f2fde38b146102d3578063faec4a0e146102e6578063ff8692401461030657600080fd5b8063a129c3c114610233578063aae741c414610253578063ac0f05f614610266578063b0aee4dd14610277578063c657c6a51461028a57600080fd5b80636d1641f8116100f45780636d1641f8146101cb578063715018a6146101eb5780638b69759d146101f35780638da5cb5b14610206578063a0bd5c401461022b57600080fd5b80630956848d14610131578063295795e21461014657806346e7ccac146101595780634a4666c1146101815780635092b7eb14610194575b600080fd5b61014461013f366004611140565b610319565b005b6101446101543660046111b3565b6103b3565b61016c6101673660046111f5565b6103cd565b60405190151581526020015b60405180910390f35b61014461018f3660046111f5565b610436565b6101bd6101a23660046111f5565b6001600160a01b031660009081526004602052604090205490565b604051908152602001610178565b6101de6101d9366004611140565b6104ca565b6040516101789190611267565b61014461056f565b6101446102013660046111f5565b610583565b6000546001600160a01b03165b6040516001600160a01b039091168152602001610178565b6101de6106fd565b6102466102413660046111f5565b61074c565b60405161017891906112a9565b61014461026136600461130b565b610868565b6000546001600160a01b0316610213565b610144610285366004611365565b6108e7565b61029d610298366004611140565b61099c565b604051610178929190611398565b6101de6102b9366004611140565b610a6c565b6102c6610b25565b60405161017891906113bc565b6101446102e13660046111f5565b610b87565b6102f96102f4366004611140565b610c05565b6040516101789190611409565b61014461031436600461141c565b610d0d565b610321610ece565b6040805180820182523081528151602081810184526000808352818401929092526001600160a01b038616825260049052919091208054839081106103685761036861146f565b600091825260209182902083516002929092020180546001600160a01b0319166001600160a01b039092169190911781559082015160018201906103ac9082611523565b5050505050565b6103bb610ece565b60026103c88284836115e3565b505050565b6000805b60035481101561042d57826001600160a01b0316600382815481106103f8576103f861146f565b6000918252602090912001546001600160a01b03160361041b5750600192915050565b80610425816116b9565b9150506103d1565b50600092915050565b61043e610ece565b60038054600180820183556000929092527fc2575a0e9e593c00f959f8c92f12db2869c3395a3b0502d05e2516446f71f85b0180546001600160a01b0319166001600160a01b0384169081179091556040805191825260208201929092527fc87a4935cdc0cc2f4fd8743c8c8cc64fa2ef421e74bbfdb1e2d12b9448ce846e910160405180910390a150565b6005602090815260009283526040808420909152908252902080546104ee9061149b565b80601f016020809104026020016040519081016040528092919081815260200182805461051a9061149b565b80156105675780601f1061053c57610100808354040283529160200191610567565b820191906000526020600020905b81548152906001019060200180831161054a57829003601f168201915b505050505081565b610577610ece565b6105816000610f28565b565b61058b610ece565b6000805b60035481101561067c57826001600160a01b0316600382815481106105b6576105b661146f565b6000918252602090912001546001600160a01b0316036105d557600191505b8180156105ed57506003546105eb8260016116d2565b105b1561066a5760036105ff8260016116d2565b8154811061060f5761060f61146f565b600091825260209091200154600380546001600160a01b03909216918390811061063b5761063b61146f565b9060005260206000200160006101000a8154816001600160a01b0302191690836001600160a01b031602179055505b80610674816116b9565b91505061058f565b5080156106b7576003805480610694576106946116e5565b600082815260209020810160001990810180546001600160a01b03191690550190555b604080516001600160a01b0384168152600060208201527fc87a4935cdc0cc2f4fd8743c8c8cc64fa2ef421e74bbfdb1e2d12b9448ce846e910160405180910390a15050565b6060610728600260405160200161071491906116fb565b604051602081830303815290604052610f78565b6040516020016107389190611796565b604051602081830303815290604052905090565b6001600160a01b0381166000908152600460209081526040808320805482518185028101850190935280835260609492939192909184015b8282101561085d576000848152602090819020604080518082019091526002850290910180546001600160a01b0316825260018101805492939192918401916107cc9061149b565b80601f01602080910402602001604051908101604052809291908181526020018280546107f89061149b565b80156108455780601f1061081a57610100808354040283529160200191610845565b820191906000526020600020905b81548152906001019060200180831161082857829003601f168201915b50505050508152505081526020019060010190610784565b505050509050919050565b610870610ece565b6001600160a01b0384166000908152600560209081526040808320868452909152902061089e8284836115e3565b50604080516001600160a01b0386168152602081018590527f3c04fa406d3ae956c92028301ce0e11a27327dce3fdf918a10f3b1e6c57eff4b910160405180910390a150505050565b6108ef610ece565b60008160405160200161090491815260200190565b60408051601f19818403018152828201825230835260208381018290526001600160a01b03881660009081526004909152919091208054919350908590811061094f5761094f61146f565b600091825260209182902083516002929092020180546001600160a01b0319166001600160a01b039092169190911781559082015160018201906109939082611523565b50505050505050565b600460205281600052604060002081815481106109b857600080fd5b6000918252602090912060029091020180546001820180546001600160a01b0390921694509192506109e99061149b565b80601f0160208091040260200160405190810160405280929190818152602001828054610a159061149b565b8015610a625780601f10610a3757610100808354040283529160200191610a62565b820191906000526020600020905b815481529060010190602001808311610a4557829003601f168201915b5050505050905082565b6001600160a01b03821660009081526005602090815260408083208484529091529020805460609190610a9e9061149b565b80601f0160208091040260200160405190810160405280929190818152602001828054610aca9061149b565b8015610b175780601f10610aec57610100808354040283529160200191610b17565b820191906000526020600020905b815481529060010190602001808311610afa57829003601f168201915b505050505090505b92915050565b60606003805480602002602001604051908101604052809291908181526020018280548015610b7d57602002820191906000526020600020905b81546001600160a01b03168152600190910190602001808311610b5f575b5050505050905090565b610b8f610ece565b6001600160a01b038116610bf95760405162461bcd60e51b815260206004820152602660248201527f4f776e61626c653a206e6577206f776e657220697320746865207a65726f206160448201526564647265737360d01b60648201526084015b60405180910390fd5b610c0281610f28565b50565b6040805180820190915260008152606060208201526001600160a01b0383166000908152600460205260409020805483908110610c4457610c4461146f565b60009182526020918290206040805180820190915260029092020180546001600160a01b031682526001810180549293919291840191610c839061149b565b80601f0160208091040260200160405190810160405280929190818152602001828054610caf9061149b565b8015610cfc5780601f10610cd157610100808354040283529160200191610cfc565b820191906000526020600020905b815481529060010190602001808311610cdf57829003601f168201915b505050505081525050905092915050565b610d156110cb565b610d1e836103cd565b610d3b5760405163013ecafb60e41b815260040160405180910390fd5b60405163b9b93dd960e01b81526001600160a01b0384169063b9b93dd990610d6d9033903090879087906004016117db565b600060405180830381600087803b158015610d8757600080fd5b505af1158015610d9b573d6000803e3d6000fd5b5050506001600160a01b038416600090815260046020908152604091829020825180840184523381528351601f8701849004840281018401909452858452909350918282019186908690819084018382808284376000920182905250939094525050835460018082018655948252602091829020845160029092020180546001600160a01b0319166001600160a01b0390921691909117815590830151929390929083019150610e4b9082611523565b5050507f4d2ef691b28bc29b54bcf4292b26ec1238eb9854f4793172acb6daa7b0a46f4d33846001610e92876001600160a01b031660009081526004602052604090205490565b610e9c9190611827565b604080516001600160a01b0394851681529390921660208401529082015260600160405180910390a16103c860018055565b6000546001600160a01b031633146105815760405162461bcd60e51b815260206004820181905260248201527f4f776e61626c653a2063616c6c6572206973206e6f7420746865206f776e65726044820152606401610bf0565b600080546001600160a01b038381166001600160a01b0319831681178455604051919092169283917f8be0079c531659141344cd1fd0a4f28419497f9722a3daafe3b4186f6b6457e09190a35050565b60608151600003610f9757505060408051602081019091526000815290565b60006040518060600160405280604081526020016118746040913990506000600384516002610fc691906116d2565b610fd0919061183a565b610fdb90600461185c565b67ffffffffffffffff811115610ff357610ff3611485565b6040519080825280601f01601f19166020018201604052801561101d576020820181803683370190505b509050600182016020820185865187015b80821015611089576003820191508151603f8160121c168501518453600184019350603f81600c1c168501518453600184019350603f8160061c168501518453600184019350603f811685015184535060018301925061102e565b50506003865106600181146110a557600281146110b8576110c0565b603d6001830353603d60028303536110c0565b603d60018303535b509195945050505050565b60026001540361111d5760405162461bcd60e51b815260206004820152601f60248201527f5265656e7472616e637947756172643a207265656e7472616e742063616c6c006044820152606401610bf0565b6002600155565b80356001600160a01b038116811461113b57600080fd5b919050565b6000806040838503121561115357600080fd5b61115c83611124565b946020939093013593505050565b60008083601f84011261117c57600080fd5b50813567ffffffffffffffff81111561119457600080fd5b6020830191508360208285010111156111ac57600080fd5b9250929050565b600080602083850312156111c657600080fd5b823567ffffffffffffffff8111156111dd57600080fd5b6111e98582860161116a565b90969095509350505050565b60006020828403121561120757600080fd5b61121082611124565b9392505050565b60005b8381101561123257818101518382015260200161121a565b50506000910152565b60008151808452611253816020860160208601611217565b601f01601f19169290920160200192915050565b602081526000611210602083018461123b565b60018060a01b03815116825260006020820151604060208501526112a1604085018261123b565b949350505050565b6000602080830181845280855180835260408601915060408160051b870101925083870160005b828110156112fe57603f198886030184526112ec85835161127a565b945092850192908501906001016112d0565b5092979650505050505050565b6000806000806060858703121561132157600080fd5b61132a85611124565b935060208501359250604085013567ffffffffffffffff81111561134d57600080fd5b6113598782880161116a565b95989497509550505050565b60008060006060848603121561137a57600080fd5b61138384611124565b95602085013595506040909401359392505050565b6001600160a01b03831681526040602082018190526000906112a19083018461123b565b6020808252825182820181905260009190848201906040850190845b818110156113fd5783516001600160a01b0316835292840192918401916001016113d8565b50909695505050505050565b602081526000611210602083018461127a565b60008060006040848603121561143157600080fd5b61143a84611124565b9250602084013567ffffffffffffffff81111561145657600080fd5b6114628682870161116a565b9497909650939450505050565b634e487b7160e01b600052603260045260246000fd5b634e487b7160e01b600052604160045260246000fd5b600181811c908216806114af57607f821691505b6020821081036114cf57634e487b7160e01b600052602260045260246000fd5b50919050565b601f8211156103c857600081815260208120601f850160051c810160208610156114fc5750805b601f850160051c820191505b8181101561151b57828155600101611508565b505050505050565b815167ffffffffffffffff81111561153d5761153d611485565b6115518161154b845461149b565b846114d5565b602080601f831160018114611586576000841561156e5750858301515b600019600386901b1c1916600185901b17855561151b565b600085815260208120601f198616915b828110156115b557888601518255948401946001909101908401611596565b50858210156115d35787850151600019600388901b60f8161c191681555b5050505050600190811b01905550565b67ffffffffffffffff8311156115fb576115fb611485565b61160f83611609835461149b565b836114d5565b6000601f841160018114611643576000851561162b5750838201355b600019600387901b1c1916600186901b1783556103ac565b600083815260209020601f19861690835b828110156116745786850135825560209485019460019092019101611654565b50868210156116915760001960f88860031b161c19848701351681555b505060018560011b0183555050505050565b634e487b7160e01b600052601160045260246000fd5b6000600182016116cb576116cb6116a3565b5060010190565b80820180821115610b1f57610b1f6116a3565b634e487b7160e01b600052603160045260246000fd5b683d913730b6b2911d1160b91b8152600060096000845461171b8161149b565b60018281168015611733576001811461174c5761177f565b60ff19841688870152821515830288018601945061177f565b8860005260208060002060005b858110156117745781548b82018a0152908401908201611759565b505050858389010194505b505061227d60f01b83525050600201949350505050565b7f646174613a6170706c69636174696f6e2f6a736f6e3b6261736536342c0000008152600082516117ce81601d850160208701611217565b91909101601d0192915050565b6001600160a01b0385811682528416602082015260606040820181905281018290526000828460808401376000608084840101526080601f19601f850116830101905095945050505050565b81810381811115610b1f57610b1f6116a3565b60008261185757634e487b7160e01b600052601260045260246000fd5b500490565b8082028115828204841417610b1f57610b1f6116a356fe4142434445464748494a4b4c4d4e4f505152535455565758595a6162636465666768696a6b6c6d6e6f707172737475767778797a303132333435363738392b2fa2646970667358221220640bef32710b99c478a4b232db8f367b4a9592ac0b94a6320a7b860d57a07dcf64736f6c63430008130033",
    "linkReferences": {}
  },
  "methodIdentifiers": {
    "addAuthorizer(address)": "4a4666c1",
    "addComment(address,uint256,string)": "aae741c4",
    "addPost(address,string)": "ff869240",
    "attestations(address,uint256)": "c657c6a5",
    "commentByAuthorizerAndIndex(address,uint256)": "d6573eba",
    "contestations(address,uint256)": "6d1641f8",
    "deletePost(address,uint256)": "0956848d",
    "deletePostWithHash(address,uint256,bytes32)": "b0aee4dd",
    "getAuthorizerList()": "ef107afc",
    "getMetadataUri()": "a0bd5c40",
    "isAuthorizer(address)": "46e7ccac",
    "owner()": "8da5cb5b",
    "postByAuthorizerAndIndex(address,uint256)": "faec4a0e",
    "postLengthByAuthorizer(address)": "5092b7eb",
    "postsByAuthorizer(address)": "a129c3c1",
    "profileOwner()": "ac0f05f6",
    "removeAuthorizer(address)": "8b69759d",
    "renounceOwnership()": "715018a6",
    "setOwnerName(string)": "295795e2",
    "transferOwnership(address)": "f2fde38b"
  },
  "id": 32
}