{
  "abi": [
    {
      "inputs": [],
      "stateMutability": "nonpayable",
      "type": "constructor"
    },
    {
      "inputs": [],
      "name": "AuthorizerDenied",
      "type": "error"
    },
    {
      "inputs": [
        {
          "internalType": "address",
          "name": "sender",
          "type": "address"
        },
        {
          "internalType": "address",
          "name": "authorizer",
          "type": "address"
        }
      ],
      "name": "TransactionDenied",
      "type": "error"
    },
    {
      "anonymous": false,
      "inputs": [
        {
          "indexed": false,
          "internalType": "address",
          "name": "sender",
          "type": "address"
        },
        {
          "indexed": false,
          "internalType": "address",
          "name": "authorizer",
          "type": "address"
        },
        {
          "indexed": false,
          "internalType": "uint256",
          "name": "index",
          "type": "uint256"
        }
      ],
      "name": "Attest",
      "type": "event"
    },
    {
      "anonymous": false,
      "inputs": [
        {
          "indexed": false,
          "internalType": "address",
          "name": "authorizer",
          "type": "address"
        },
        {
          "indexed": false,
          "internalType": "bool",
          "name": "status",
          "type": "bool"
        }
      ],
      "name": "AuthorizeChange",
      "type": "event"
    },
    {
      "anonymous": false,
      "inputs": [
        {
          "indexed": false,
          "internalType": "address",
          "name": "authorizer",
          "type": "address"
        },
        {
          "indexed": false,
          "internalType": "uint256",
          "name": "index",
          "type": "uint256"
        }
      ],
      "name": "Contest",
      "type": "event"
    },
    {
      "anonymous": false,
      "inputs": [
        {
          "indexed": true,
          "internalType": "address",
          "name": "previousOwner",
          "type": "address"
        },
        {
          "indexed": true,
          "internalType": "address",
          "name": "newOwner",
          "type": "address"
        }
      ],
      "name": "OwnershipTransferred",
      "type": "event"
    },
    {
      "inputs": [
        {
          "internalType": "address",
          "name": "newAuthorizer",
          "type": "address"
        }
      ],
      "name": "addAuthorizer",
      "outputs": [],
      "stateMutability": "nonpayable",
      "type": "function"
    },
    {
      "inputs": [
        {
          "internalType": "address",
          "name": "_authorizer",
          "type": "address"
        },
        {
          "internalType": "string",
          "name": "message",
          "type": "string"
        }
      ],
      "name": "attest",
      "outputs": [],
      "stateMutability": "nonpayable",
      "type": "function"
    },
    {
      "inputs": [
        {
          "internalType": "address",
          "name": "",
          "type": "address"
        },
        {
          "internalType": "uint256",
          "name": "",
          "type": "uint256"
        }
      ],
      "name": "attestations",
      "outputs": [
        {
          "internalType": "address",
          "name": "sender",
          "type": "address"
        },
        {
          "internalType": "string",
          "name": "message",
          "type": "string"
        }
      ],
      "stateMutability": "view",
      "type": "function"
    },
    {
      "inputs": [
        {
          "internalType": "address",
          "name": "_authorizer",
          "type": "address"
        },
        {
          "internalType": "uint256",
          "name": "index",
          "type": "uint256"
        },
        {
          "internalType": "string",
          "name": "message",
          "type": "string"
        }
      ],
      "name": "contest",
      "outputs": [],
      "stateMutability": "nonpayable",
      "type": "function"
    },
    {
      "inputs": [
        {
          "internalType": "address",
          "name": "",
          "type": "address"
        },
        {
          "internalType": "uint256",
          "name": "",
          "type": "uint256"
        }
      ],
      "name": "contestations",
      "outputs": [
        {
          "internalType": "string",
          "name": "",
          "type": "string"
        }
      ],
      "stateMutability": "view",
      "type": "function"
    },
    {
      "inputs": [
        {
          "internalType": "address",
          "name": "authorizer",
          "type": "address"
        },
        {
          "internalType": "uint256",
          "name": "index",
          "type": "uint256"
        }
      ],
      "name": "deleteAttestation",
      "outputs": [],
      "stateMutability": "nonpayable",
      "type": "function"
    },
    {
      "inputs": [
        {
          "internalType": "address",
          "name": "authorizer",
          "type": "address"
        },
        {
          "internalType": "uint256",
          "name": "index",
          "type": "uint256"
        },
        {
          "internalType": "bytes32",
          "name": "hash",
          "type": "bytes32"
        }
      ],
      "name": "deleteAttestationWithHash",
      "outputs": [],
      "stateMutability": "nonpayable",
      "type": "function"
    },
    {
      "inputs": [
        {
          "internalType": "address",
          "name": "authorizer",
          "type": "address"
        }
      ],
      "name": "getAttestLength",
      "outputs": [
        {
          "internalType": "uint256",
          "name": "",
          "type": "uint256"
        }
      ],
      "stateMutability": "view",
      "type": "function"
    },
    {
      "inputs": [
        {
          "internalType": "address",
          "name": "authorizer",
          "type": "address"
        },
        {
          "internalType": "uint256",
          "name": "index",
          "type": "uint256"
        }
      ],
      "name": "getAttestation",
      "outputs": [
        {
          "components": [
            {
              "internalType": "address",
              "name": "sender",
              "type": "address"
            },
            {
              "internalType": "string",
              "name": "message",
              "type": "string"
            }
          ],
          "internalType": "struct IProfile.Attestation",
          "name": "",
          "type": "tuple"
        }
      ],
      "stateMutability": "view",
      "type": "function"
    },
    {
      "inputs": [
        {
          "internalType": "address",
          "name": "authorizer",
          "type": "address"
        }
      ],
      "name": "getAttestations",
      "outputs": [
        {
          "components": [
            {
              "internalType": "address",
              "name": "sender",
              "type": "address"
            },
            {
              "internalType": "string",
              "name": "message",
              "type": "string"
            }
          ],
          "internalType": "struct IProfile.Attestation[]",
          "name": "",
          "type": "tuple[]"
        }
      ],
      "stateMutability": "view",
      "type": "function"
    },
    {
      "inputs": [],
      "name": "getAuthorizerList",
      "outputs": [
        {
          "internalType": "address[]",
          "name": "",
          "type": "address[]"
        }
      ],
      "stateMutability": "view",
      "type": "function"
    },
    {
      "inputs": [
        {
          "internalType": "address",
          "name": "authorizer",
          "type": "address"
        },
        {
          "internalType": "uint256",
          "name": "index",
          "type": "uint256"
        }
      ],
      "name": "getContest",
      "outputs": [
        {
          "internalType": "string",
          "name": "",
          "type": "string"
        }
      ],
      "stateMutability": "view",
      "type": "function"
    },
    {
      "inputs": [],
      "name": "getOwner",
      "outputs": [
        {
          "internalType": "address",
          "name": "",
          "type": "address"
        }
      ],
      "stateMutability": "view",
      "type": "function"
    },
    {
      "inputs": [
        {
          "internalType": "address",
          "name": "_authorizer",
          "type": "address"
        }
      ],
      "name": "isAuthorizer",
      "outputs": [
        {
          "internalType": "bool",
          "name": "",
          "type": "bool"
        }
      ],
      "stateMutability": "view",
      "type": "function"
    },
    {
      "inputs": [],
      "name": "owner",
      "outputs": [
        {
          "internalType": "address",
          "name": "",
          "type": "address"
        }
      ],
      "stateMutability": "view",
      "type": "function"
    },
    {
      "inputs": [
        {
          "internalType": "address",
          "name": "badAuthorizer",
          "type": "address"
        }
      ],
      "name": "removeAuthorizer",
      "outputs": [],
      "stateMutability": "nonpayable",
      "type": "function"
    },
    {
      "inputs": [],
      "name": "renounceOwnership",
      "outputs": [],
      "stateMutability": "nonpayable",
      "type": "function"
    },
    {
      "inputs": [
        {
          "internalType": "address",
          "name": "newOwner",
          "type": "address"
        }
      ],
      "name": "transferOwnership",
      "outputs": [],
      "stateMutability": "nonpayable",
      "type": "function"
    }
  ],
  "bytecode": {
    "object": "0x608060405234801561001057600080fd5b5061001a33610023565b60018055610073565b600080546001600160a01b038381166001600160a01b0319831681178455604051919092169283917f8be0079c531659141344cd1fd0a4f28419497f9722a3daafe3b4186f6b6457e09190a35050565b6114c0806100826000396000f3fe608060405234801561001057600080fd5b50600436106101165760003560e01c80638da5cb5b116100a2578063c657c6a511610071578063c657c6a514610279578063cf1e66da1461029a578063de8155ca146102ad578063ef107afc146102c0578063f2fde38b146102d557600080fd5b80638da5cb5b14610222578063a3c06bfd14610233578063a521c69014610246578063aba6466c1461025957600080fd5b80636d1641f8116100e95780636d1641f8146101af578063715018a6146101c2578063888e1c7d146101ca578063893d20e8146101ea5780638b69759d1461020f57600080fd5b806346e7ccac1461011b5780634a4666c1146101435780634e073ff21461015857806358e52af61461018f575b600080fd5b61012e610129366004610ec3565b6102e8565b60405190151581526020015b60405180910390f35b610156610151366004610ec3565b610351565b005b610181610166366004610ec3565b6001600160a01b031660009081526003602052604090205490565b60405190815260200161013a565b6101a261019d366004610ee5565b6103e6565b60405161013a9190610f55565b6101a26101bd366004610ee5565b61049f565b610156610544565b6101dd6101d8366004610ee5565b610558565b60405161013a9190610f97565b6000546001600160a01b03165b6040516001600160a01b03909116815260200161013a565b61015661021d366004610ec3565b610660565b6000546001600160a01b03166101f7565b610156610241366004610ff3565b6106ec565b610156610254366004610ee5565b61090f565b61026c610267366004610ec3565b6109a9565b60405161013a9190611046565b61028c610287366004610ee5565b610ac5565b60405161013a9291906110a8565b6101566102a83660046110cc565b610b95565b6101566102bb366004611126565b610c14565b6102c8610cc9565b60405161013a9190611159565b6101566102e3366004610ec3565b610d2b565b6000805b60025481101561034857826001600160a01b031660028281548110610313576103136111a6565b6000918252602090912001546001600160a01b0316036103365750600192915050565b80610340816111d2565b9150506102ec565b50600092915050565b610359610da4565b60028054600180820183556000929092527f405787fa12a823e0f2b7631cc41b3ba8828b3321ca811111fa75cd3aa3bb5ace0180546001600160a01b0319166001600160a01b0384169081179091556040805191825260208201929092527fc87a4935cdc0cc2f4fd8743c8c8cc64fa2ef421e74bbfdb1e2d12b9448ce846e91015b60405180910390a150565b6001600160a01b03821660009081526004602090815260408083208484529091529020805460609190610418906111eb565b80601f0160208091040260200160405190810160405280929190818152602001828054610444906111eb565b80156104915780601f1061046657610100808354040283529160200191610491565b820191906000526020600020905b81548152906001019060200180831161047457829003601f168201915b505050505090505b92915050565b6004602090815260009283526040808420909152908252902080546104c3906111eb565b80601f01602080910402602001604051908101604052809291908181526020018280546104ef906111eb565b801561053c5780601f106105115761010080835404028352916020019161053c565b820191906000526020600020905b81548152906001019060200180831161051f57829003601f168201915b505050505081565b61054c610da4565b6105566000610dfe565b565b6040805180820190915260008152606060208201526001600160a01b0383166000908152600360205260409020805483908110610597576105976111a6565b60009182526020918290206040805180820190915260029092020180546001600160a01b0316825260018101805492939192918401916105d6906111eb565b80601f0160208091040260200160405190810160405280929190818152602001828054610602906111eb565b801561064f5780601f106106245761010080835404028352916020019161064f565b820191906000526020600020905b81548152906001019060200180831161063257829003601f168201915b505050505081525050905092915050565b610668610da4565b6002805460018101825560009182527f405787fa12a823e0f2b7631cc41b3ba8828b3321ca811111fa75cd3aa3bb5ace0180546001600160a01b0319166001600160a01b0384169081179091556040805191825260208201929092527fc87a4935cdc0cc2f4fd8743c8c8cc64fa2ef421e74bbfdb1e2d12b9448ce846e91016103db565b6106f4610e4e565b6106fd836102e8565b61071a5760405163013ecafb60e41b815260040160405180910390fd5b6040516354d19b0160e01b81526001600160a01b038416906354d19b019061074c903390309087908790600401611225565b6020604051808303816000875af115801561076b573d6000803e3d6000fd5b505050506040513d601f19601f8201168201806040525081019061078f9190611271565b6107c2576040516306ddef4760e31b81523360048201526001600160a01b03841660248201526044015b60405180910390fd5b60036000846001600160a01b03166001600160a01b031681526020019081526020016000206040518060400160405280336001600160a01b0316815260200184848080601f0160208091040260200160405190810160405280939291908181526020018383808284376000920182905250939094525050835460018082018655948252602091829020845160029092020180546001600160a01b0319166001600160a01b039092169190911781559083015192939092908301915061088790826112f7565b5050507f4d2ef691b28bc29b54bcf4292b26ec1238eb9854f4793172acb6daa7b0a46f4d338460016108ce876001600160a01b031660009081526003602052604090205490565b6108d891906113b7565b604080516001600160a01b0394851681529390921660208401529082015260600160405180910390a161090a60018055565b505050565b610917610da4565b6040805180820182523081528151602081810184526000808352818401929092526001600160a01b0386168252600390529190912080548390811061095e5761095e6111a6565b600091825260209182902083516002929092020180546001600160a01b0319166001600160a01b039092169190911781559082015160018201906109a290826112f7565b5050505050565b6001600160a01b0381166000908152600360209081526040808320805482518185028101850190935280835260609492939192909184015b82821015610aba576000848152602090819020604080518082019091526002850290910180546001600160a01b031682526001810180549293919291840191610a29906111eb565b80601f0160208091040260200160405190810160405280929190818152602001828054610a55906111eb565b8015610aa25780601f10610a7757610100808354040283529160200191610aa2565b820191906000526020600020905b815481529060010190602001808311610a8557829003601f168201915b505050505081525050815260200190600101906109e1565b505050509050919050565b60036020528160005260406000208181548110610ae157600080fd5b6000918252602090912060029091020180546001820180546001600160a01b039092169450919250610b12906111eb565b80601f0160208091040260200160405190810160405280929190818152602001828054610b3e906111eb565b8015610b8b5780601f10610b6057610100808354040283529160200191610b8b565b820191906000526020600020905b815481529060010190602001808311610b6e57829003601f168201915b5050505050905082565b610b9d610da4565b6001600160a01b03841660009081526004602090815260408083208684529091529020610bcb8284836113ca565b50604080516001600160a01b0386168152602081018590527f3c04fa406d3ae956c92028301ce0e11a27327dce3fdf918a10f3b1e6c57eff4b910160405180910390a150505050565b610c1c610da4565b600081604051602001610c3191815260200190565b60408051601f19818403018152828201825230835260208381018290526001600160a01b038816600090815260039091529190912080549193509085908110610c7c57610c7c6111a6565b600091825260209182902083516002929092020180546001600160a01b0319166001600160a01b03909216919091178155908201516001820190610cc090826112f7565b50505050505050565b60606002805480602002602001604051908101604052809291908181526020018280548015610d2157602002820191906000526020600020905b81546001600160a01b03168152600190910190602001808311610d03575b5050505050905090565b610d33610da4565b6001600160a01b038116610d985760405162461bcd60e51b815260206004820152602660248201527f4f776e61626c653a206e6577206f776e657220697320746865207a65726f206160448201526564647265737360d01b60648201526084016107b9565b610da181610dfe565b50565b6000546001600160a01b031633146105565760405162461bcd60e51b815260206004820181905260248201527f4f776e61626c653a2063616c6c6572206973206e6f7420746865206f776e657260448201526064016107b9565b600080546001600160a01b038381166001600160a01b0319831681178455604051919092169283917f8be0079c531659141344cd1fd0a4f28419497f9722a3daafe3b4186f6b6457e09190a35050565b600260015403610ea05760405162461bcd60e51b815260206004820152601f60248201527f5265656e7472616e637947756172643a207265656e7472616e742063616c6c0060448201526064016107b9565b6002600155565b80356001600160a01b0381168114610ebe57600080fd5b919050565b600060208284031215610ed557600080fd5b610ede82610ea7565b9392505050565b60008060408385031215610ef857600080fd5b610f0183610ea7565b946020939093013593505050565b6000815180845260005b81811015610f3557602081850181015186830182015201610f19565b506000602082860101526020601f19601f83011685010191505092915050565b602081526000610ede6020830184610f0f565b60018060a01b0381511682526000602082015160406020850152610f8f6040850182610f0f565b949350505050565b602081526000610ede6020830184610f68565b60008083601f840112610fbc57600080fd5b50813567ffffffffffffffff811115610fd457600080fd5b602083019150836020828501011115610fec57600080fd5b9250929050565b60008060006040848603121561100857600080fd5b61101184610ea7565b9250602084013567ffffffffffffffff81111561102d57600080fd5b61103986828701610faa565b9497909650939450505050565b6000602080830181845280855180835260408601915060408160051b870101925083870160005b8281101561109b57603f19888603018452611089858351610f68565b9450928501929085019060010161106d565b5092979650505050505050565b6001600160a01b0383168152604060208201819052600090610f8f90830184610f0f565b600080600080606085870312156110e257600080fd5b6110eb85610ea7565b935060208501359250604085013567ffffffffffffffff81111561110e57600080fd5b61111a87828801610faa565b95989497509550505050565b60008060006060848603121561113b57600080fd5b61114484610ea7565b95602085013595506040909401359392505050565b6020808252825182820181905260009190848201906040850190845b8181101561119a5783516001600160a01b031683529284019291840191600101611175565b50909695505050505050565b634e487b7160e01b600052603260045260246000fd5b634e487b7160e01b600052601160045260246000fd5b6000600182016111e4576111e46111bc565b5060010190565b600181811c908216806111ff57607f821691505b60208210810361121f57634e487b7160e01b600052602260045260246000fd5b50919050565b6001600160a01b0385811682528416602082015260606040820181905281018290526000828460808401376000608084840101526080601f19601f850116830101905095945050505050565b60006020828403121561128357600080fd5b81518015158114610ede57600080fd5b634e487b7160e01b600052604160045260246000fd5b601f82111561090a57600081815260208120601f850160051c810160208610156112d05750805b601f850160051c820191505b818110156112ef578281556001016112dc565b505050505050565b815167ffffffffffffffff81111561131157611311611293565b6113258161131f84546111eb565b846112a9565b602080601f83116001811461135a57600084156113425750858301515b600019600386901b1c1916600185901b1785556112ef565b600085815260208120601f198616915b828110156113895788860151825594840194600190910190840161136a565b50858210156113a75787850151600019600388901b60f8161c191681555b5050505050600190811b01905550565b81810381811115610499576104996111bc565b67ffffffffffffffff8311156113e2576113e2611293565b6113f6836113f083546111eb565b836112a9565b6000601f84116001811461142a57600085156114125750838201355b600019600387901b1c1916600186901b1783556109a2565b600083815260209020601f19861690835b8281101561145b578685013582556020948501946001909201910161143b565b50868210156114785760001960f88860031b161c19848701351681555b505060018560011b018355505050505056fea264697066735822122093ef07cb8f6c6ecba0ec66dd38272f3cba2d4d0f2510215fd74f0c9b69e3244764736f6c63430008130033",
    "linkReferences": {}
  },
  "methodIdentifiers": {
    "addAuthorizer(address)": "4a4666c1",
    "attest(address,string)": "a3c06bfd",
    "attestations(address,uint256)": "c657c6a5",
    "contest(address,uint256,string)": "cf1e66da",
    "contestations(address,uint256)": "6d1641f8",
    "deleteAttestation(address,uint256)": "a521c690",
    "deleteAttestationWithHash(address,uint256,bytes32)": "de8155ca",
    "getAttestLength(address)": "4e073ff2",
    "getAttestation(address,uint256)": "888e1c7d",
    "getAttestations(address)": "aba6466c",
    "getAuthorizerList()": "ef107afc",
    "getContest(address,uint256)": "58e52af6",
    "getOwner()": "893d20e8",
    "isAuthorizer(address)": "46e7ccac",
    "owner()": "8da5cb5b",
    "removeAuthorizer(address)": "8b69759d",
    "renounceOwnership()": "715018a6",
    "transferOwnership(address)": "f2fde38b"
  },
  "id": 27
}