{
  "abi": [
    {
      "anonymous": false,
      "inputs": [
        {
          "indexed": false,
          "internalType": "address",
          "name": "sender",
          "type": "address"
        },
        {
          "indexed": false,
          "internalType": "uint256",
          "name": "id",
          "type": "uint256"
        },
        {
          "indexed": false,
          "internalType": "bytes",
          "name": "attest",
          "type": "bytes"
        }
      ],
      "name": "Attest",
      "type": "event"
    },
    {
      "anonymous": false,
      "inputs": [
        {
          "indexed": false,
          "internalType": "address",
          "name": "authorizer",
          "type": "address"
        }
      ],
      "name": "AuthorizeChange",
      "type": "event"
    },
    {
      "anonymous": false,
      "inputs": [
        {
          "indexed": false,
          "internalType": "uint256",
          "name": "id",
          "type": "uint256"
        },
        {
          "indexed": false,
          "internalType": "string",
          "name": "message",
          "type": "string"
        }
      ],
      "name": "Contest",
      "type": "event"
    },
    {
      "anonymous": false,
      "inputs": [
        {
          "indexed": true,
          "internalType": "address",
          "name": "previousOwner",
          "type": "address"
        },
        {
          "indexed": true,
          "internalType": "address",
          "name": "newOwner",
          "type": "address"
        }
      ],
      "name": "OwnershipTransferred",
      "type": "event"
    },
    {
      "inputs": [
        {
          "internalType": "address",
          "name": "newAuthorizer",
          "type": "address"
        }
      ],
      "name": "addAuthorizer",
      "outputs": [],
      "stateMutability": "nonpayable",
      "type": "function"
    },
    {
      "inputs": [
        {
          "internalType": "address",
          "name": "authorizer",
          "type": "address"
        },
        {
          "internalType": "string",
          "name": "attestData",
          "type": "string"
        }
      ],
      "name": "attest",
      "outputs": [],
      "stateMutability": "nonpayable",
      "type": "function"
    },
    {
      "inputs": [
        {
          "internalType": "uint256",
          "name": "",
          "type": "uint256"
        }
      ],
      "name": "attestations",
      "outputs": [
        {
          "internalType": "address",
          "name": "submitter",
          "type": "address"
        },
        {
          "internalType": "address",
          "name": "authorizer",
          "type": "address"
        },
        {
          "internalType": "bytes",
          "name": "hash",
          "type": "bytes"
        }
      ],
      "stateMutability": "view",
      "type": "function"
    },
    {
      "inputs": [
        {
          "internalType": "address",
          "name": "",
          "type": "address"
        }
      ],
      "name": "authorizedContracts",
      "outputs": [
        {
          "internalType": "bool",
          "name": "",
          "type": "bool"
        }
      ],
      "stateMutability": "view",
      "type": "function"
    },
    {
      "inputs": [
        {
          "internalType": "uint256",
          "name": "attestationId",
          "type": "uint256"
        },
        {
          "internalType": "string",
          "name": "reason",
          "type": "string"
        }
      ],
      "name": "contest",
      "outputs": [],
      "stateMutability": "nonpayable",
      "type": "function"
    },
    {
      "inputs": [
        {
          "internalType": "uint256",
          "name": "",
          "type": "uint256"
        }
      ],
      "name": "contestations",
      "outputs": [
        {
          "internalType": "address",
          "name": "submitter",
          "type": "address"
        },
        {
          "internalType": "uint256",
          "name": "attestationId",
          "type": "uint256"
        },
        {
          "internalType": "bytes",
          "name": "hash",
          "type": "bytes"
        }
      ],
      "stateMutability": "view",
      "type": "function"
    },
    {
      "inputs": [
        {
          "internalType": "address",
          "name": "authorizer",
          "type": "address"
        }
      ],
      "name": "isAuthorizer",
      "outputs": [
        {
          "internalType": "bool",
          "name": "",
          "type": "bool"
        }
      ],
      "stateMutability": "view",
      "type": "function"
    },
    {
      "inputs": [],
      "name": "owner",
      "outputs": [
        {
          "internalType": "address",
          "name": "",
          "type": "address"
        }
      ],
      "stateMutability": "view",
      "type": "function"
    },
    {
      "inputs": [
        {
          "internalType": "address",
          "name": "badAuthorizer",
          "type": "address"
        }
      ],
      "name": "removeAuthorizer",
      "outputs": [],
      "stateMutability": "nonpayable",
      "type": "function"
    },
    {
      "inputs": [],
      "name": "renounceOwnership",
      "outputs": [],
      "stateMutability": "nonpayable",
      "type": "function"
    },
    {
      "inputs": [
        {
          "internalType": "address",
          "name": "newOwner",
          "type": "address"
        }
      ],
      "name": "transferOwnership",
      "outputs": [],
      "stateMutability": "nonpayable",
      "type": "function"
    },
    {
      "inputs": [
        {
          "internalType": "uint256",
          "name": "_id",
          "type": "uint256"
        }
      ],
      "name": "viewAttestation",
      "outputs": [
        {
          "internalType": "string",
          "name": "",
          "type": "string"
        }
      ],
      "stateMutability": "view",
      "type": "function"
    },
    {
      "inputs": [
        {
          "internalType": "uint256",
          "name": "_id",
          "type": "uint256"
        }
      ],
      "name": "viewContest",
      "outputs": [
        {
          "internalType": "string",
          "name": "",
          "type": "string"
        }
      ],
      "stateMutability": "view",
      "type": "function"
    }
  ],
  "bytecode": {
    "object": "0x60806040526000600555600060065534801561001a57600080fd5b506100243361002d565b6001805561007d565b600080546001600160a01b038381166001600160a01b0319831681178455604051919092169283917f8be0079c531659141344cd1fd0a4f28419497f9722a3daafe3b4186f6b6457e09190a35050565b610d9d8061008c6000396000f3fe608060405234801561001057600080fd5b50600436106100cf5760003560e01c80638b69759d1161008c5780639d81702a116100665780639d81702a146101cc578063a3c06bfd146101ee578063d5b9221b14610201578063f2fde38b1461022457600080fd5b80638b69759d1461018b5780638da5cb5b1461019e5780639976ef9b146101b957600080fd5b806301daf26b146100d457806346e7ccac146100ff5780634a4666c11461013b5780636ebbf70214610150578063715018a61461017057806385833b1c14610178575b600080fd5b6100e76100e23660046109dd565b610237565b6040516100f693929190610a46565b60405180910390f35b61012b61010d366004610a97565b6001600160a01b031660009081526002602052604090205460ff1690565b60405190151581526020016100f6565b61014e610149366004610a97565b6102ef565b005b61016361015e3660046109dd565b610352565b6040516100f69190610ab9565b61014e610375565b6101636101863660046109dd565b610389565b61014e610199366004610a97565b6103a6565b6000546040516001600160a01b0390911681526020016100f6565b61014e6101c7366004610b15565b6103ff565b6101df6101da3660046109dd565b61054f565b6040516100f693929190610b61565b61014e6101fc366004610b88565b610581565b61012b61020f366004610a97565b60026020526000908152604090205460ff1681565b61014e610232366004610a97565b61081b565b6004602052600090815260409020805460018201546002830180546001600160a01b0393841694929093169261026c90610bc2565b80601f016020809104026020016040519081016040528092919081815260200182805461029890610bc2565b80156102e55780601f106102ba576101008083540402835291602001916102e5565b820191906000526020600020905b8154815290600101906020018083116102c857829003601f168201915b5050505050905083565b6102f7610894565b6001600160a01b038116600081815260026020908152604091829020805460ff1916600117905590519182527f92b6972ae4517b8954503e5764eb616c6e410583ca2c5897c69d08ae15ade48291015b60405180910390a150565b600081815260046020526040902060609061036f906002016108ee565b92915050565b61037d610894565b610387600061098d565b565b600081815260036020526040902060609061036f906002016108ee565b6103ae610894565b6001600160a01b038116600081815260026020908152604091829020805460ff1916905590519182527f92b6972ae4517b8954503e5764eb616c6e410583ca2c5897c69d08ae15ade4829101610347565b610407610894565b6000828260405160200161041c929190610c25565b60408051601f1981840301815260065460009081526003602090815283822060608601855280546001600160a01b031686526001810154918601919091526002810180549396509194939092908401919061047690610bc2565b80601f01602080910402602001604051908101604052809291908181526020018280546104a290610bc2565b80156104ef5780601f106104c4576101008083540402835291602001916104ef565b820191906000526020600020905b8154815290600101906020018083116104d257829003601f168201915b50505091909252505033825250602081018690526040808201849052519091507fe34bb82855beedb98640205ed5412081c18c9b5a9986cdefc455d55cd556872e9061054090879087908790610c41565b60405180910390a15050505050565b6003602052600090815260409020805460018201546002830180546001600160a01b0390931693919261026c90610bc2565b6001600160a01b03831660009081526002602052604090205460ff166105fe5760405162461bcd60e51b815260206004820152602760248201527f4e6f7420612076616c696420417574686f72697a657220666f7220746869732060448201526670726f66696c6560c81b60648201526084015b60405180910390fd5b604051632bb4956960e11b81523360048201526001600160a01b038416906357692ad290602401602060405180830381865afa158015610642573d6000803e3d6000fd5b505050506040513d601f19601f820116820180604052508101906106669190610c5b565b6106b25760405162461bcd60e51b815260206004820152601860248201527f4e6f7420617574686f72697a656420746f20617474657374000000000000000060448201526064016105f5565b600082826040516020016106c7929190610c25565b60408051601f1981840301815260055460009081526004602090815283822060608601855280546001600160a01b039081168752600182015416918601919091526002810180549396509194939092908401919061072490610bc2565b80601f016020809104026020016040519081016040528092919081815260200182805461075090610bc2565b801561079d5780601f106107725761010080835404028352916020019161079d565b820191906000526020600020905b81548152906001019060200180831161078057829003601f168201915b505050919092525050338083526001600160a01b0388166020840152604080840186905260055490519394507fff70629d5db105b0abe843ccc952eeeaeac9c1972003523134641443f3f08f4f936107f793508690610b61565b60405180910390a16005805490600061080f83610c7d565b91905055505050505050565b610823610894565b6001600160a01b0381166108885760405162461bcd60e51b815260206004820152602660248201527f4f776e61626c653a206e6577206f776e657220697320746865207a65726f206160448201526564647265737360d01b60648201526084016105f5565b6108918161098d565b50565b6000546001600160a01b031633146103875760405162461bcd60e51b815260206004820181905260248201527f4f776e61626c653a2063616c6c6572206973206e6f7420746865206f776e657260448201526064016105f5565b60608180546108fc90610bc2565b80601f016020809104026020016040519081016040528092919081815260200182805461092890610bc2565b80156109755780601f1061094a57610100808354040283529160200191610975565b820191906000526020600020905b81548152906001019060200180831161095857829003601f168201915b505050505080602001905181019061036f9190610cba565b600080546001600160a01b038381166001600160a01b0319831681178455604051919092169283917f8be0079c531659141344cd1fd0a4f28419497f9722a3daafe3b4186f6b6457e09190a35050565b6000602082840312156109ef57600080fd5b5035919050565b60005b83811015610a115781810151838201526020016109f9565b50506000910152565b60008151808452610a328160208601602086016109f6565b601f01601f19169290920160200192915050565b6001600160a01b03848116825283166020820152606060408201819052600090610a7290830184610a1a565b95945050505050565b80356001600160a01b0381168114610a9257600080fd5b919050565b600060208284031215610aa957600080fd5b610ab282610a7b565b9392505050565b602081526000610ab26020830184610a1a565b60008083601f840112610ade57600080fd5b50813567ffffffffffffffff811115610af657600080fd5b602083019150836020828501011115610b0e57600080fd5b9250929050565b600080600060408486031215610b2a57600080fd5b83359250602084013567ffffffffffffffff811115610b4857600080fd5b610b5486828701610acc565b9497909650939450505050565b60018060a01b0384168152826020820152606060408201526000610a726060830184610a1a565b600080600060408486031215610b9d57600080fd5b610ba684610a7b565b9250602084013567ffffffffffffffff811115610b4857600080fd5b600181811c90821680610bd657607f821691505b602082108103610bf657634e487b7160e01b600052602260045260246000fd5b50919050565b81835281816020850137506000828201602090810191909152601f909101601f19169091010190565b602081526000610c39602083018486610bfc565b949350505050565b838152604060208201526000610a72604083018486610bfc565b600060208284031215610c6d57600080fd5b81518015158114610ab257600080fd5b600060018201610c9d57634e487b7160e01b600052601160045260246000fd5b5060010190565b634e487b7160e01b600052604160045260246000fd5b600060208284031215610ccc57600080fd5b815167ffffffffffffffff80821115610ce457600080fd5b818401915084601f830112610cf857600080fd5b815181811115610d0a57610d0a610ca4565b604051601f8201601f19908116603f01168101908382118183101715610d3257610d32610ca4565b81604052828152876020848701011115610d4b57600080fd5b610d5c8360208301602088016109f6565b97965050505050505056fea2646970667358221220a76545a9ef0cbb32edaee5750aaa1af8ea76b2040ed1e60fc6214168e77ee9ea64736f6c63430008130033",
    "linkReferences": {}
  },
  "methodIdentifiers": {
    "addAuthorizer(address)": "4a4666c1",
    "attest(address,string)": "a3c06bfd",
    "attestations(uint256)": "01daf26b",
    "authorizedContracts(address)": "d5b9221b",
    "contest(uint256,string)": "9976ef9b",
    "contestations(uint256)": "9d81702a",
    "isAuthorizer(address)": "46e7ccac",
    "owner()": "8da5cb5b",
    "removeAuthorizer(address)": "8b69759d",
    "renounceOwnership()": "715018a6",
    "transferOwnership(address)": "f2fde38b",
    "viewAttestation(uint256)": "6ebbf702",
    "viewContest(uint256)": "85833b1c"
  },
  "id": 21
}