{
  "abi": [
    {
      "anonymous": false,
      "inputs": [
        {
          "indexed": false,
          "internalType": "address",
          "name": "sender",
          "type": "address"
        },
        {
          "indexed": false,
          "internalType": "uint256",
          "name": "index",
          "type": "uint256"
        },
        {
          "indexed": false,
          "internalType": "string",
          "name": "message",
          "type": "string"
        }
      ],
      "name": "Attest",
      "type": "event"
    },
    {
      "anonymous": false,
      "inputs": [
        {
          "indexed": false,
          "internalType": "address",
          "name": "authorizer",
          "type": "address"
        },
        {
          "indexed": false,
          "internalType": "bool",
          "name": "status",
          "type": "bool"
        }
      ],
      "name": "AuthorizeChange",
      "type": "event"
    },
    {
      "anonymous": false,
      "inputs": [
        {
          "indexed": false,
          "internalType": "uint256",
          "name": "index",
          "type": "uint256"
        },
        {
          "indexed": false,
          "internalType": "string",
          "name": "message",
          "type": "string"
        }
      ],
      "name": "Contest",
      "type": "event"
    },
    {
      "anonymous": false,
      "inputs": [
        {
          "indexed": true,
          "internalType": "address",
          "name": "previousOwner",
          "type": "address"
        },
        {
          "indexed": true,
          "internalType": "address",
          "name": "newOwner",
          "type": "address"
        }
      ],
      "name": "OwnershipTransferred",
      "type": "event"
    },
    {
      "inputs": [
        {
          "internalType": "address",
          "name": "newAuthorizer",
          "type": "address"
        }
      ],
      "name": "addAuthorizer",
      "outputs": [],
      "stateMutability": "nonpayable",
      "type": "function"
    },
    {
      "inputs": [
        {
          "internalType": "address",
          "name": "_authorizer",
          "type": "address"
        },
        {
          "internalType": "string",
          "name": "message",
          "type": "string"
        }
      ],
      "name": "attest",
      "outputs": [],
      "stateMutability": "nonpayable",
      "type": "function"
    },
    {
      "inputs": [
        {
          "internalType": "address",
          "name": "",
          "type": "address"
        },
        {
          "internalType": "uint256",
          "name": "",
          "type": "uint256"
        }
      ],
      "name": "attestations",
      "outputs": [
        {
          "internalType": "string",
          "name": "",
          "type": "string"
        }
      ],
      "stateMutability": "view",
      "type": "function"
    },
    {
      "inputs": [
        {
          "internalType": "address",
          "name": "attester",
          "type": "address"
        },
        {
          "internalType": "uint256",
          "name": "index",
          "type": "uint256"
        },
        {
          "internalType": "string",
          "name": "message",
          "type": "string"
        }
      ],
      "name": "contest",
      "outputs": [],
      "stateMutability": "nonpayable",
      "type": "function"
    },
    {
      "inputs": [
        {
          "internalType": "address",
          "name": "",
          "type": "address"
        },
        {
          "internalType": "uint256",
          "name": "",
          "type": "uint256"
        }
      ],
      "name": "contestations",
      "outputs": [
        {
          "internalType": "string",
          "name": "",
          "type": "string"
        }
      ],
      "stateMutability": "view",
      "type": "function"
    },
    {
      "inputs": [
        {
          "internalType": "address",
          "name": "sender",
          "type": "address"
        }
      ],
      "name": "getAttestLength",
      "outputs": [
        {
          "internalType": "uint256",
          "name": "",
          "type": "uint256"
        }
      ],
      "stateMutability": "view",
      "type": "function"
    },
    {
      "inputs": [
        {
          "internalType": "address",
          "name": "authorizer",
          "type": "address"
        },
        {
          "internalType": "uint256",
          "name": "index",
          "type": "uint256"
        }
      ],
      "name": "getAttestation",
      "outputs": [
        {
          "internalType": "string",
          "name": "",
          "type": "string"
        }
      ],
      "stateMutability": "view",
      "type": "function"
    },
    {
      "inputs": [],
      "name": "getAuthorizerList",
      "outputs": [
        {
          "internalType": "address[]",
          "name": "",
          "type": "address[]"
        }
      ],
      "stateMutability": "view",
      "type": "function"
    },
    {
      "inputs": [
        {
          "internalType": "address",
          "name": "sender",
          "type": "address"
        },
        {
          "internalType": "uint256",
          "name": "index",
          "type": "uint256"
        }
      ],
      "name": "getContest",
      "outputs": [
        {
          "internalType": "string",
          "name": "",
          "type": "string"
        }
      ],
      "stateMutability": "view",
      "type": "function"
    },
    {
      "inputs": [],
      "name": "getOwner",
      "outputs": [
        {
          "internalType": "address",
          "name": "",
          "type": "address"
        }
      ],
      "stateMutability": "view",
      "type": "function"
    },
    {
      "inputs": [
        {
          "internalType": "address",
          "name": "_authorizer",
          "type": "address"
        }
      ],
      "name": "isAuthorizer",
      "outputs": [
        {
          "internalType": "bool",
          "name": "",
          "type": "bool"
        }
      ],
      "stateMutability": "view",
      "type": "function"
    },
    {
      "inputs": [],
      "name": "owner",
      "outputs": [
        {
          "internalType": "address",
          "name": "",
          "type": "address"
        }
      ],
      "stateMutability": "view",
      "type": "function"
    },
    {
      "inputs": [
        {
          "internalType": "address",
          "name": "badAuthorizer",
          "type": "address"
        }
      ],
      "name": "removeAuthorizer",
      "outputs": [],
      "stateMutability": "nonpayable",
      "type": "function"
    },
    {
      "inputs": [],
      "name": "renounceOwnership",
      "outputs": [],
      "stateMutability": "nonpayable",
      "type": "function"
    },
    {
      "inputs": [
        {
          "internalType": "address",
          "name": "newOwner",
          "type": "address"
        }
      ],
      "name": "transferOwnership",
      "outputs": [],
      "stateMutability": "nonpayable",
      "type": "function"
    }
  ],
  "bytecode": {
    "object": "0x608060405234801561001057600080fd5b5061001a3361001f565b61006f565b600080546001600160a01b038381166001600160a01b0319831681178455604051919092169283917f8be0079c531659141344cd1fd0a4f28419497f9722a3daafe3b4186f6b6457e09190a35050565b610cd28061007e6000396000f3fe608060405234801561001057600080fd5b50600436106100f55760003560e01c8063893d20e811610097578063c657c6a511610066578063c657c6a514610218578063cf1e66da1461022b578063ef107afc1461023e578063f2fde38b1461025357600080fd5b8063893d20e8146101bc5780638b69759d146101e15780638da5cb5b146101f4578063a3c06bfd1461020557600080fd5b806358e52af6116100d357806358e52af61461016e5780636d1641f81461018e578063715018a6146101a1578063888e1c7d146101a957600080fd5b806346e7ccac146100fa5780634a4666c1146101225780634e073ff214610137575b600080fd5b61010d610108366004610889565b610266565b60405190151581526020015b60405180910390f35b610135610130366004610889565b6102cf565b005b610160610145366004610889565b6001600160a01b031660009081526003602052604090205490565b604051908152602001610119565b61018161017c3660046108ab565b610361565b60405161011991906108d5565b61018161019c3660046108ab565b61041a565b6101356104bf565b6101816101b73660046108ab565b6104d3565b6000546001600160a01b03165b6040516001600160a01b039091168152602001610119565b6101356101ef366004610889565b610516565b6000546001600160a01b03166101c9565b61013561021336600461096c565b6105a1565b6101816102263660046108ab565b610633565b6101356102393660046109bf565b61066b565b6102466106e3565b6040516101199190610a19565b610135610261366004610889565b610745565b6000805b6001548110156102c657826001600160a01b03166001828154811061029157610291610a66565b6000918252602090912001546001600160a01b0316036102b45750600192915050565b806102be81610a92565b91505061026a565b50600092915050565b6102d76107c3565b60018054808201825560008290527fb10e2d527612073b26eecdfd717e6a320cf44b4afac2b0732d9fcbe2b7fa0cf60180546001600160a01b0319166001600160a01b0384169081179091556040805191825260208201929092527fc87a4935cdc0cc2f4fd8743c8c8cc64fa2ef421e74bbfdb1e2d12b9448ce846e91015b60405180910390a150565b6001600160a01b0382166000908152600260209081526040808320848452909152902080546060919061039390610aab565b80601f01602080910402602001604051908101604052809291908181526020018280546103bf90610aab565b801561040c5780601f106103e15761010080835404028352916020019161040c565b820191906000526020600020905b8154815290600101906020018083116103ef57829003601f168201915b505050505090505b92915050565b60026020908152600092835260408084209091529082529020805461043e90610aab565b80601f016020809104026020016040519081016040528092919081815260200182805461046a90610aab565b80156104b75780601f1061048c576101008083540402835291602001916104b7565b820191906000526020600020905b81548152906001019060200180831161049a57829003601f168201915b505050505081565b6104c76107c3565b6104d1600061081d565b565b6001600160a01b03821660009081526003602052604090208054606091908390811061050157610501610a66565b90600052602060002001805461039390610aab565b61051e6107c3565b60018054808201825560009182527fb10e2d527612073b26eecdfd717e6a320cf44b4afac2b0732d9fcbe2b7fa0cf60180546001600160a01b0319166001600160a01b0384169081179091556040805191825260208201929092527fc87a4935cdc0cc2f4fd8743c8c8cc64fa2ef421e74bbfdb1e2d12b9448ce846e9101610356565b6001600160a01b0383166000908152600360209081526040822080546001810182559083529120016105d4828483610b4a565b50336000818152600360205260409020547f511b2a66dd7f95a19dc49a88e996eb88326487622dbc9c843fc1531879058791919061061490600190610c0b565b84846040516106269493929190610c47565b60405180910390a1505050565b6003602052816000526040600020818154811061064f57600080fd5b9060005260206000200160009150915050805461043e90610aab565b6106736107c3565b6001600160a01b038416600090815260026020908152604080832086845290915290206106a1828483610b4a565b507fe34bb82855beedb98640205ed5412081c18c9b5a9986cdefc455d55cd556872e8383836040516106d593929190610c79565b60405180910390a150505050565b6060600180548060200260200160405190810160405280929190818152602001828054801561073b57602002820191906000526020600020905b81546001600160a01b0316815260019091019060200180831161071d575b5050505050905090565b61074d6107c3565b6001600160a01b0381166107b75760405162461bcd60e51b815260206004820152602660248201527f4f776e61626c653a206e6577206f776e657220697320746865207a65726f206160448201526564647265737360d01b60648201526084015b60405180910390fd5b6107c08161081d565b50565b6000546001600160a01b031633146104d15760405162461bcd60e51b815260206004820181905260248201527f4f776e61626c653a2063616c6c6572206973206e6f7420746865206f776e657260448201526064016107ae565b600080546001600160a01b038381166001600160a01b0319831681178455604051919092169283917f8be0079c531659141344cd1fd0a4f28419497f9722a3daafe3b4186f6b6457e09190a35050565b80356001600160a01b038116811461088457600080fd5b919050565b60006020828403121561089b57600080fd5b6108a48261086d565b9392505050565b600080604083850312156108be57600080fd5b6108c78361086d565b946020939093013593505050565b600060208083528351808285015260005b81811015610902578581018301518582016040015282016108e6565b506000604082860101526040601f19601f8301168501019250505092915050565b60008083601f84011261093557600080fd5b50813567ffffffffffffffff81111561094d57600080fd5b60208301915083602082850101111561096557600080fd5b9250929050565b60008060006040848603121561098157600080fd5b61098a8461086d565b9250602084013567ffffffffffffffff8111156109a657600080fd5b6109b286828701610923565b9497909650939450505050565b600080600080606085870312156109d557600080fd5b6109de8561086d565b935060208501359250604085013567ffffffffffffffff811115610a0157600080fd5b610a0d87828801610923565b95989497509550505050565b6020808252825182820181905260009190848201906040850190845b81811015610a5a5783516001600160a01b031683529284019291840191600101610a35565b50909695505050505050565b634e487b7160e01b600052603260045260246000fd5b634e487b7160e01b600052601160045260246000fd5b600060018201610aa457610aa4610a7c565b5060010190565b600181811c90821680610abf57607f821691505b602082108103610adf57634e487b7160e01b600052602260045260246000fd5b50919050565b634e487b7160e01b600052604160045260246000fd5b601f821115610b4557600081815260208120601f850160051c81016020861015610b225750805b601f850160051c820191505b81811015610b4157828155600101610b2e565b5050505b505050565b67ffffffffffffffff831115610b6257610b62610ae5565b610b7683610b708354610aab565b83610afb565b6000601f841160018114610baa5760008515610b925750838201355b600019600387901b1c1916600186901b178355610c04565b600083815260209020601f19861690835b82811015610bdb5786850135825560209485019460019092019101610bbb565b5086821015610bf85760001960f88860031b161c19848701351681555b505060018560011b0183555b5050505050565b8181038181111561041457610414610a7c565b81835281816020850137506000828201602090810191909152601f909101601f19169091010190565b60018060a01b0385168152836020820152606060408201526000610c6f606083018486610c1e565b9695505050505050565b838152604060208201526000610c93604083018486610c1e565b9594505050505056fea2646970667358221220061d64039f1c1c58ca69cc50db4184287df75484b39684714ae066fcfe4f1c9264736f6c63430008130033",
    "linkReferences": {}
  },
  "methodIdentifiers": {
    "addAuthorizer(address)": "4a4666c1",
    "attest(address,string)": "a3c06bfd",
    "attestations(address,uint256)": "c657c6a5",
    "contest(address,uint256,string)": "cf1e66da",
    "contestations(address,uint256)": "6d1641f8",
    "getAttestLength(address)": "4e073ff2",
    "getAttestation(address,uint256)": "888e1c7d",
    "getAuthorizerList()": "ef107afc",
    "getContest(address,uint256)": "58e52af6",
    "getOwner()": "893d20e8",
    "isAuthorizer(address)": "46e7ccac",
    "owner()": "8da5cb5b",
    "removeAuthorizer(address)": "8b69759d",
    "renounceOwnership()": "715018a6",
    "transferOwnership(address)": "f2fde38b"
  },
  "id": 25
}