{
  "abi": [
    {
      "inputs": [
        {
          "internalType": "string",
          "name": "_ownerName",
          "type": "string"
        }
      ],
      "stateMutability": "nonpayable",
      "type": "constructor"
    },
    {
      "inputs": [],
      "name": "AuthorizerDenied",
      "type": "error"
    },
    {
      "anonymous": false,
      "inputs": [
        {
          "indexed": false,
          "internalType": "address",
          "name": "sender",
          "type": "address"
        },
        {
          "indexed": false,
          "internalType": "address",
          "name": "authorizer",
          "type": "address"
        },
        {
          "indexed": false,
          "internalType": "uint256",
          "name": "index",
          "type": "uint256"
        }
      ],
      "name": "Attest",
      "type": "event"
    },
    {
      "anonymous": false,
      "inputs": [
        {
          "indexed": false,
          "internalType": "address",
          "name": "authorizer",
          "type": "address"
        },
        {
          "indexed": false,
          "internalType": "bool",
          "name": "status",
          "type": "bool"
        }
      ],
      "name": "AuthorizeChange",
      "type": "event"
    },
    {
      "anonymous": false,
      "inputs": [
        {
          "indexed": false,
          "internalType": "address",
          "name": "authorizer",
          "type": "address"
        },
        {
          "indexed": false,
          "internalType": "uint256",
          "name": "index",
          "type": "uint256"
        }
      ],
      "name": "Contest",
      "type": "event"
    },
    {
      "anonymous": false,
      "inputs": [
        {
          "indexed": true,
          "internalType": "address",
          "name": "previousOwner",
          "type": "address"
        },
        {
          "indexed": true,
          "internalType": "address",
          "name": "newOwner",
          "type": "address"
        }
      ],
      "name": "OwnershipTransferred",
      "type": "event"
    },
    {
      "inputs": [
        {
          "internalType": "address",
          "name": "newAuthorizer",
          "type": "address"
        }
      ],
      "name": "addAuthorizer",
      "outputs": [],
      "stateMutability": "nonpayable",
      "type": "function"
    },
    {
      "inputs": [
        {
          "internalType": "address",
          "name": "_authorizer",
          "type": "address"
        },
        {
          "internalType": "uint256",
          "name": "index",
          "type": "uint256"
        },
        {
          "internalType": "string",
          "name": "message",
          "type": "string"
        }
      ],
      "name": "addComment",
      "outputs": [],
      "stateMutability": "nonpayable",
      "type": "function"
    },
    {
      "inputs": [
        {
          "internalType": "address",
          "name": "_authorizer",
          "type": "address"
        },
        {
          "internalType": "string",
          "name": "message",
          "type": "string"
        }
      ],
      "name": "addPost",
      "outputs": [],
      "stateMutability": "nonpayable",
      "type": "function"
    },
    {
      "inputs": [
        {
          "internalType": "address",
          "name": "",
          "type": "address"
        },
        {
          "internalType": "uint256",
          "name": "",
          "type": "uint256"
        }
      ],
      "name": "attestations",
      "outputs": [
        {
          "internalType": "address",
          "name": "sender",
          "type": "address"
        },
        {
          "internalType": "string",
          "name": "message",
          "type": "string"
        }
      ],
      "stateMutability": "view",
      "type": "function"
    },
    {
      "inputs": [
        {
          "internalType": "address",
          "name": "authorizer",
          "type": "address"
        },
        {
          "internalType": "uint256",
          "name": "index",
          "type": "uint256"
        }
      ],
      "name": "commentByAuthorizerAndIndex",
      "outputs": [
        {
          "internalType": "string",
          "name": "",
          "type": "string"
        }
      ],
      "stateMutability": "view",
      "type": "function"
    },
    {
      "inputs": [
        {
          "internalType": "address",
          "name": "",
          "type": "address"
        },
        {
          "internalType": "uint256",
          "name": "",
          "type": "uint256"
        }
      ],
      "name": "contestations",
      "outputs": [
        {
          "internalType": "string",
          "name": "",
          "type": "string"
        }
      ],
      "stateMutability": "view",
      "type": "function"
    },
    {
      "inputs": [
        {
          "internalType": "address",
          "name": "authorizer",
          "type": "address"
        },
        {
          "internalType": "uint256",
          "name": "index",
          "type": "uint256"
        }
      ],
      "name": "deletePost",
      "outputs": [],
      "stateMutability": "nonpayable",
      "type": "function"
    },
    {
      "inputs": [
        {
          "internalType": "address",
          "name": "authorizer",
          "type": "address"
        },
        {
          "internalType": "uint256",
          "name": "index",
          "type": "uint256"
        },
        {
          "internalType": "bytes32",
          "name": "hash",
          "type": "bytes32"
        }
      ],
      "name": "deletePostWithHash",
      "outputs": [],
      "stateMutability": "nonpayable",
      "type": "function"
    },
    {
      "inputs": [],
      "name": "getAuthorizerList",
      "outputs": [
        {
          "internalType": "address[]",
          "name": "",
          "type": "address[]"
        }
      ],
      "stateMutability": "view",
      "type": "function"
    },
    {
      "inputs": [],
      "name": "getMetadataUri",
      "outputs": [
        {
          "internalType": "string",
          "name": "",
          "type": "string"
        }
      ],
      "stateMutability": "view",
      "type": "function"
    },
    {
      "inputs": [
        {
          "internalType": "address",
          "name": "_authorizer",
          "type": "address"
        }
      ],
      "name": "isAuthorizer",
      "outputs": [
        {
          "internalType": "bool",
          "name": "",
          "type": "bool"
        }
      ],
      "stateMutability": "view",
      "type": "function"
    },
    {
      "inputs": [],
      "name": "owner",
      "outputs": [
        {
          "internalType": "address",
          "name": "",
          "type": "address"
        }
      ],
      "stateMutability": "view",
      "type": "function"
    },
    {
      "inputs": [
        {
          "internalType": "address",
          "name": "authorizer",
          "type": "address"
        },
        {
          "internalType": "uint256",
          "name": "index",
          "type": "uint256"
        }
      ],
      "name": "postByAuthorizerAndIndex",
      "outputs": [
        {
          "components": [
            {
              "internalType": "address",
              "name": "sender",
              "type": "address"
            },
            {
              "internalType": "string",
              "name": "message",
              "type": "string"
            }
          ],
          "internalType": "struct IProfile.Attestation",
          "name": "",
          "type": "tuple"
        }
      ],
      "stateMutability": "view",
      "type": "function"
    },
    {
      "inputs": [
        {
          "internalType": "address",
          "name": "authorizer",
          "type": "address"
        }
      ],
      "name": "postLengthByAuthorizer",
      "outputs": [
        {
          "internalType": "uint256",
          "name": "",
          "type": "uint256"
        }
      ],
      "stateMutability": "view",
      "type": "function"
    },
    {
      "inputs": [
        {
          "internalType": "address",
          "name": "authorizer",
          "type": "address"
        }
      ],
      "name": "postsByAuthorizer",
      "outputs": [
        {
          "components": [
            {
              "internalType": "address",
              "name": "sender",
              "type": "address"
            },
            {
              "internalType": "string",
              "name": "message",
              "type": "string"
            }
          ],
          "internalType": "struct IProfile.Attestation[]",
          "name": "",
          "type": "tuple[]"
        }
      ],
      "stateMutability": "view",
      "type": "function"
    },
    {
      "inputs": [],
      "name": "profileOwner",
      "outputs": [
        {
          "internalType": "address",
          "name": "",
          "type": "address"
        }
      ],
      "stateMutability": "view",
      "type": "function"
    },
    {
      "inputs": [
        {
          "internalType": "address",
          "name": "badAuthorizer",
          "type": "address"
        }
      ],
      "name": "removeAuthorizer",
      "outputs": [],
      "stateMutability": "nonpayable",
      "type": "function"
    },
    {
      "inputs": [],
      "name": "renounceOwnership",
      "outputs": [],
      "stateMutability": "nonpayable",
      "type": "function"
    },
    {
      "inputs": [
        {
          "internalType": "string",
          "name": "_newOwnerName",
          "type": "string"
        }
      ],
      "name": "setOwnerName",
      "outputs": [],
      "stateMutability": "nonpayable",
      "type": "function"
    },
    {
      "inputs": [
        {
          "internalType": "address",
          "name": "newOwner",
          "type": "address"
        }
      ],
      "name": "transferOwnership",
      "outputs": [],
      "stateMutability": "nonpayable",
      "type": "function"
    }
  ],
  "bytecode": {
    "object": "0x60806040523480156200001157600080fd5b5060405162001c1938038062001c198339810160408190526200003491620000bf565b6200003f3362000059565b60018055600262000051828262000223565b5050620002ef565b600080546001600160a01b038381166001600160a01b0319831681178455604051919092169283917f8be0079c531659141344cd1fd0a4f28419497f9722a3daafe3b4186f6b6457e09190a35050565b634e487b7160e01b600052604160045260246000fd5b60006020808385031215620000d357600080fd5b82516001600160401b0380821115620000eb57600080fd5b818501915085601f8301126200010057600080fd5b815181811115620001155762000115620000a9565b604051601f8201601f19908116603f01168101908382118183101715620001405762000140620000a9565b8160405282815288868487010111156200015957600080fd5b600093505b828410156200017d57848401860151818501870152928501926200015e565b600086848301015280965050505050505092915050565b600181811c90821680620001a957607f821691505b602082108103620001ca57634e487b7160e01b600052602260045260246000fd5b50919050565b601f8211156200021e57600081815260208120601f850160051c81016020861015620001f95750805b601f850160051c820191505b818110156200021a5782815560010162000205565b5050505b505050565b81516001600160401b038111156200023f576200023f620000a9565b620002578162000250845462000194565b84620001d0565b602080601f8311600181146200028f5760008415620002765750858301515b600019600386901b1c1916600185901b1785556200021a565b600085815260208120601f198616915b82811015620002c0578886015182559484019460019091019084016200029f565b5085821015620002df5787850151600019600388901b60f8161c191681555b5050505050600190811b01905550565b61191a80620002ff6000396000f3fe608060405234801561001057600080fd5b506004361061012c5760003560e01c8063a129c3c1116100ad578063d6573eba11610071578063d6573eba146102ab578063ef107afc146102be578063f2fde38b146102d3578063faec4a0e146102e6578063ff8692401461030657600080fd5b8063a129c3c114610233578063aae741c414610253578063ac0f05f614610266578063b0aee4dd14610277578063c657c6a51461028a57600080fd5b80636d1641f8116100f45780636d1641f8146101cb578063715018a6146101eb5780638b69759d146101f35780638da5cb5b14610206578063a0bd5c401461022b57600080fd5b80630956848d14610131578063295795e21461014657806346e7ccac146101595780634a4666c1146101815780635092b7eb14610194575b600080fd5b61014461013f366004611171565b610319565b005b6101446101543660046111e4565b6103b3565b61016c610167366004611226565b6103cd565b60405190151581526020015b60405180910390f35b61014461018f366004611226565b610436565b6101bd6101a2366004611226565b6001600160a01b031660009081526004602052604090205490565b604051908152602001610178565b6101de6101d9366004611171565b6104ca565b6040516101789190611298565b61014461056f565b610144610201366004611226565b610583565b6000546001600160a01b03165b6040516001600160a01b039091168152602001610178565b6101de61072e565b610246610241366004611226565b61077d565b60405161017891906112da565b61014461026136600461133c565b610899565b6000546001600160a01b0316610213565b610144610285366004611396565b610918565b61029d610298366004611171565b6109cd565b6040516101789291906113c9565b6101de6102b9366004611171565b610a9d565b6102c6610b56565b60405161017891906113ed565b6101446102e1366004611226565b610bb8565b6102f96102f4366004611171565b610c36565b604051610178919061143a565b61014461031436600461144d565b610d3e565b610321610eff565b6040805180820182523081528151602081810184526000808352818401929092526001600160a01b03861682526004905291909120805483908110610368576103686114a0565b600091825260209182902083516002929092020180546001600160a01b0319166001600160a01b039092169190911781559082015160018201906103ac9082611554565b5050505050565b6103bb610eff565b60026103c8828483611614565b505050565b6000805b60035481101561042d57826001600160a01b0316600382815481106103f8576103f86114a0565b6000918252602090912001546001600160a01b03160361041b5750600192915050565b80610425816116ea565b9150506103d1565b50600092915050565b61043e610eff565b60038054600180820183556000929092527fc2575a0e9e593c00f959f8c92f12db2869c3395a3b0502d05e2516446f71f85b0180546001600160a01b0319166001600160a01b0384169081179091556040805191825260208201929092527fc87a4935cdc0cc2f4fd8743c8c8cc64fa2ef421e74bbfdb1e2d12b9448ce846e910160405180910390a150565b6005602090815260009283526040808420909152908252902080546104ee906114cc565b80601f016020809104026020016040519081016040528092919081815260200182805461051a906114cc565b80156105675780601f1061053c57610100808354040283529160200191610567565b820191906000526020600020905b81548152906001019060200180831161054a57829003601f168201915b505050505081565b610577610eff565b6105816000610f59565b565b61058b610eff565b6003805460018101825560009182527fc2575a0e9e593c00f959f8c92f12db2869c3395a3b0502d05e2516446f71f85b0180546001600160a01b0319166001600160a01b038416179055805b6003548110156106ad57826001600160a01b0316600382815481106105fe576105fe6114a0565b6000918252602090912001546001600160a01b03160361061d57600191505b811561069b576003610630826001611703565b81548110610640576106406114a0565b600091825260209091200154600380546001600160a01b03909216918390811061066c5761066c6114a0565b9060005260206000200160006101000a8154816001600160a01b0302191690836001600160a01b031602179055505b806106a5816116ea565b9150506105d7565b5080156106e85760038054806106c5576106c5611716565b600082815260209020810160001990810180546001600160a01b03191690550190555b604080516001600160a01b0384168152600060208201527fc87a4935cdc0cc2f4fd8743c8c8cc64fa2ef421e74bbfdb1e2d12b9448ce846e910160405180910390a15050565b60606107596002604051602001610745919061172c565b604051602081830303815290604052610fa9565b60405160200161076991906117c7565b604051602081830303815290604052905090565b6001600160a01b0381166000908152600460209081526040808320805482518185028101850190935280835260609492939192909184015b8282101561088e576000848152602090819020604080518082019091526002850290910180546001600160a01b0316825260018101805492939192918401916107fd906114cc565b80601f0160208091040260200160405190810160405280929190818152602001828054610829906114cc565b80156108765780601f1061084b57610100808354040283529160200191610876565b820191906000526020600020905b81548152906001019060200180831161085957829003601f168201915b505050505081525050815260200190600101906107b5565b505050509050919050565b6108a1610eff565b6001600160a01b038416600090815260056020908152604080832086845290915290206108cf828483611614565b50604080516001600160a01b0386168152602081018590527f3c04fa406d3ae956c92028301ce0e11a27327dce3fdf918a10f3b1e6c57eff4b910160405180910390a150505050565b610920610eff565b60008160405160200161093591815260200190565b60408051601f19818403018152828201825230835260208381018290526001600160a01b038816600090815260049091529190912080549193509085908110610980576109806114a0565b600091825260209182902083516002929092020180546001600160a01b0319166001600160a01b039092169190911781559082015160018201906109c49082611554565b50505050505050565b600460205281600052604060002081815481106109e957600080fd5b6000918252602090912060029091020180546001820180546001600160a01b039092169450919250610a1a906114cc565b80601f0160208091040260200160405190810160405280929190818152602001828054610a46906114cc565b8015610a935780601f10610a6857610100808354040283529160200191610a93565b820191906000526020600020905b815481529060010190602001808311610a7657829003601f168201915b5050505050905082565b6001600160a01b03821660009081526005602090815260408083208484529091529020805460609190610acf906114cc565b80601f0160208091040260200160405190810160405280929190818152602001828054610afb906114cc565b8015610b485780601f10610b1d57610100808354040283529160200191610b48565b820191906000526020600020905b815481529060010190602001808311610b2b57829003601f168201915b505050505090505b92915050565b60606003805480602002602001604051908101604052809291908181526020018280548015610bae57602002820191906000526020600020905b81546001600160a01b03168152600190910190602001808311610b90575b5050505050905090565b610bc0610eff565b6001600160a01b038116610c2a5760405162461bcd60e51b815260206004820152602660248201527f4f776e61626c653a206e6577206f776e657220697320746865207a65726f206160448201526564647265737360d01b60648201526084015b60405180910390fd5b610c3381610f59565b50565b6040805180820190915260008152606060208201526001600160a01b0383166000908152600460205260409020805483908110610c7557610c756114a0565b60009182526020918290206040805180820190915260029092020180546001600160a01b031682526001810180549293919291840191610cb4906114cc565b80601f0160208091040260200160405190810160405280929190818152602001828054610ce0906114cc565b8015610d2d5780601f10610d0257610100808354040283529160200191610d2d565b820191906000526020600020905b815481529060010190602001808311610d1057829003601f168201915b505050505081525050905092915050565b610d466110fc565b610d4f836103cd565b610d6c5760405163013ecafb60e41b815260040160405180910390fd5b60405163b9b93dd960e01b81526001600160a01b0384169063b9b93dd990610d9e90339030908790879060040161180c565b600060405180830381600087803b158015610db857600080fd5b505af1158015610dcc573d6000803e3d6000fd5b5050506001600160a01b038416600090815260046020908152604091829020825180840184523381528351601f8701849004840281018401909452858452909350918282019186908690819084018382808284376000920182905250939094525050835460018082018655948252602091829020845160029092020180546001600160a01b0319166001600160a01b0390921691909117815590830151929390929083019150610e7c9082611554565b5050507f4d2ef691b28bc29b54bcf4292b26ec1238eb9854f4793172acb6daa7b0a46f4d33846001610ec3876001600160a01b031660009081526004602052604090205490565b610ecd9190611858565b604080516001600160a01b0394851681529390921660208401529082015260600160405180910390a16103c860018055565b6000546001600160a01b031633146105815760405162461bcd60e51b815260206004820181905260248201527f4f776e61626c653a2063616c6c6572206973206e6f7420746865206f776e65726044820152606401610c21565b600080546001600160a01b038381166001600160a01b0319831681178455604051919092169283917f8be0079c531659141344cd1fd0a4f28419497f9722a3daafe3b4186f6b6457e09190a35050565b60608151600003610fc857505060408051602081019091526000815290565b60006040518060600160405280604081526020016118a56040913990506000600384516002610ff79190611703565b611001919061186b565b61100c90600461188d565b67ffffffffffffffff811115611024576110246114b6565b6040519080825280601f01601f19166020018201604052801561104e576020820181803683370190505b509050600182016020820185865187015b808210156110ba576003820191508151603f8160121c168501518453600184019350603f81600c1c168501518453600184019350603f8160061c168501518453600184019350603f811685015184535060018301925061105f565b50506003865106600181146110d657600281146110e9576110f1565b603d6001830353603d60028303536110f1565b603d60018303535b509195945050505050565b60026001540361114e5760405162461bcd60e51b815260206004820152601f60248201527f5265656e7472616e637947756172643a207265656e7472616e742063616c6c006044820152606401610c21565b6002600155565b80356001600160a01b038116811461116c57600080fd5b919050565b6000806040838503121561118457600080fd5b61118d83611155565b946020939093013593505050565b60008083601f8401126111ad57600080fd5b50813567ffffffffffffffff8111156111c557600080fd5b6020830191508360208285010111156111dd57600080fd5b9250929050565b600080602083850312156111f757600080fd5b823567ffffffffffffffff81111561120e57600080fd5b61121a8582860161119b565b90969095509350505050565b60006020828403121561123857600080fd5b61124182611155565b9392505050565b60005b8381101561126357818101518382015260200161124b565b50506000910152565b60008151808452611284816020860160208601611248565b601f01601f19169290920160200192915050565b602081526000611241602083018461126c565b60018060a01b03815116825260006020820151604060208501526112d2604085018261126c565b949350505050565b6000602080830181845280855180835260408601915060408160051b870101925083870160005b8281101561132f57603f1988860301845261131d8583516112ab565b94509285019290850190600101611301565b5092979650505050505050565b6000806000806060858703121561135257600080fd5b61135b85611155565b935060208501359250604085013567ffffffffffffffff81111561137e57600080fd5b61138a8782880161119b565b95989497509550505050565b6000806000606084860312156113ab57600080fd5b6113b484611155565b95602085013595506040909401359392505050565b6001600160a01b03831681526040602082018190526000906112d29083018461126c565b6020808252825182820181905260009190848201906040850190845b8181101561142e5783516001600160a01b031683529284019291840191600101611409565b50909695505050505050565b60208152600061124160208301846112ab565b60008060006040848603121561146257600080fd5b61146b84611155565b9250602084013567ffffffffffffffff81111561148757600080fd5b6114938682870161119b565b9497909650939450505050565b634e487b7160e01b600052603260045260246000fd5b634e487b7160e01b600052604160045260246000fd5b600181811c908216806114e057607f821691505b60208210810361150057634e487b7160e01b600052602260045260246000fd5b50919050565b601f8211156103c857600081815260208120601f850160051c8101602086101561152d5750805b601f850160051c820191505b8181101561154c57828155600101611539565b505050505050565b815167ffffffffffffffff81111561156e5761156e6114b6565b6115828161157c84546114cc565b84611506565b602080601f8311600181146115b7576000841561159f5750858301515b600019600386901b1c1916600185901b17855561154c565b600085815260208120601f198616915b828110156115e6578886015182559484019460019091019084016115c7565b50858210156116045787850151600019600388901b60f8161c191681555b5050505050600190811b01905550565b67ffffffffffffffff83111561162c5761162c6114b6565b6116408361163a83546114cc565b83611506565b6000601f841160018114611674576000851561165c5750838201355b600019600387901b1c1916600186901b1783556103ac565b600083815260209020601f19861690835b828110156116a55786850135825560209485019460019092019101611685565b50868210156116c25760001960f88860031b161c19848701351681555b505060018560011b0183555050505050565b634e487b7160e01b600052601160045260246000fd5b6000600182016116fc576116fc6116d4565b5060010190565b80820180821115610b5057610b506116d4565b634e487b7160e01b600052603160045260246000fd5b683d913730b6b2911d1160b91b8152600060096000845461174c816114cc565b60018281168015611764576001811461177d576117b0565b60ff1984168887015282151583028801860194506117b0565b8860005260208060002060005b858110156117a55781548b82018a015290840190820161178a565b505050858389010194505b505061227d60f01b83525050600201949350505050565b7f646174613a6170706c69636174696f6e2f6a736f6e3b6261736536342c0000008152600082516117ff81601d850160208701611248565b91909101601d0192915050565b6001600160a01b0385811682528416602082015260606040820181905281018290526000828460808401376000608084840101526080601f19601f850116830101905095945050505050565b81810381811115610b5057610b506116d4565b60008261188857634e487b7160e01b600052601260045260246000fd5b500490565b8082028115828204841417610b5057610b506116d456fe4142434445464748494a4b4c4d4e4f505152535455565758595a6162636465666768696a6b6c6d6e6f707172737475767778797a303132333435363738392b2fa2646970667358221220f752852aab084eec39d92ddb7df551d035a555d155b6c78a6ac742c34227d08364736f6c63430008130033",
    "linkReferences": {}
  },
  "methodIdentifiers": {
    "addAuthorizer(address)": "4a4666c1",
    "addComment(address,uint256,string)": "aae741c4",
    "addPost(address,string)": "ff869240",
    "attestations(address,uint256)": "c657c6a5",
    "commentByAuthorizerAndIndex(address,uint256)": "d6573eba",
    "contestations(address,uint256)": "6d1641f8",
    "deletePost(address,uint256)": "0956848d",
    "deletePostWithHash(address,uint256,bytes32)": "b0aee4dd",
    "getAuthorizerList()": "ef107afc",
    "getMetadataUri()": "a0bd5c40",
    "isAuthorizer(address)": "46e7ccac",
    "owner()": "8da5cb5b",
    "postByAuthorizerAndIndex(address,uint256)": "faec4a0e",
    "postLengthByAuthorizer(address)": "5092b7eb",
    "postsByAuthorizer(address)": "a129c3c1",
    "profileOwner()": "ac0f05f6",
    "removeAuthorizer(address)": "8b69759d",
    "renounceOwnership()": "715018a6",
    "setOwnerName(string)": "295795e2",
    "transferOwnership(address)": "f2fde38b"
  },
  "id": 33
}